:020000040800F2
:10000000280B002001010008793B00089B360008FE
:10001000293B0008090900084D46000800000000BF
:10002000000000000000000000000000F13B00089C
:10003000290C000800000000C53B0008F33B000845
:100040001B0100081B0100081B0100081B01000820
:100050001B0100081B0100081B0100081B01000810
:100060001B0100081B0100081B0100081B01000800
:100070001B0100081B010008DD0B0008ED0B000848
:100080001B0100081B0100081B0100081B010008E0
:100090001B0100081B0100081B0100081B010008D0
:1000A0001B010008813C00081B0100081B0100081F
:1000B0001B0100081B0100081B0100081B010008B0
:1000C0001B0100081B0100081B0100081B010008A0
:1000D0001B0100082D4600083D4600081B010008D2
:1000E0001B0100081B0100081B010008DFF80CD0F1
:1000F00000F03EFB00480047E9500008280B0020B4
:100100000648804706480047FEE7FEE7FEE7FEE7B1
:10011000FEE7FEE7FEE7FEE7FEE7FEE77F3C0008BE
:10012000ED000008202A04DB203A21FA02F0002129
:10013000704721FA02F3D040C2F1200291400843F7
:100140001946704740EA01039B0703D009E008C93C
:10015000121F08C0042AFAD203E011F8013B00F88C
:10016000013B521EF9D27047D2B201E000F8012BD8
:10017000491EFBD270470022F6E710B513460A4627
:1001800004461946FFF7F0FF204610BD30B505467E
:100190002A460B4612F8010B13F8014B08B1A04296
:1001A000F8D01CB1002802D06D1CF1E7284630BD04
:1001B0002DE9FE4F81EA030404F0004421F00041E0
:1001C00000944FF0000B23F0004350EA01045ED08E
:1001D00052EA03045BD0C3F30A54C1F30A552C441A
:1001E000A4F2F3340194A0FB0254C1F3130141F4CF
:1001F0008011C3F3130343F4801301FB024400FB9B
:10020000034E840A970A44EA815447EA8357A4FBC1
:10021000076802958D0A05FB07854FEA932C04FBBE
:100220000C542705029D4FEA065847EA1637B5EBEE
:1002300008056EEB070C870E920E47EA811742EA1B
:100240008312A7FB0201B6EB0B0164EB00042B0D3C
:1002500043EA0C335E1844EB1C50DA465146E7FB88
:100260000201C5F313044FEA0B3343EA14534FEA78
:100270000432019C43EA0603A4F10C040294009C9E
:10028000CDE900B400F04FF903B0BDE8F08F0020D5
:100290000146F9E72DE9F04D81EA030404F0004B33
:1002A00021F0004514464FF0000A23F0004150EAC7
:1002B000050220D054EA01021DD0C5F30A570246B8
:1002C000C5F31303C1F31300C1F30A5640F48015BC
:1002D00043F48013A7EB0608101BD64608F2FD383E
:1002E00073EB050002D308F1010801E092185B41AD
:1002F000B8F1000F03DA00200146BDE8F08D0020C0
:100300004FF48011064684460EE0171B73EB050779
:1003100005D3121B63EB050306434CEA010C4908A5
:100320004FEA300092185B4150EA0107EDD152EAE2
:10033000030012D082EA040083EA0501084305D0D5
:10034000101BAB4106D20122002306E000224FF031
:10035000004302E06FF0010253101AEB06004CEB71
:10036000085110EB0A0041EB0B01BDE8F04D00F025
:10037000CBB896230022114600F098B800F0004256
:1003800030F000400AD0C10D01F56071C0F31600D5
:1003900042EA0151C208400711437047002001465C
:1003A0007047000030B5041E71F1000404DB4FF00B
:1003B0000044404264EB0101141E73F1000405DBAC
:1003C0001C464FF00043524263EB04038B4208BFCC
:1003D000824230BD01F0004330B421F0004150EAC8
:1003E000010206D00A0DA2F56072C1F31301002AC2
:1003F00002DC30BC00207047440F44EAC104C10055
:10040000E01830BC00EBC25000F047B830B50B46E6
:10041000014600202022012409E021FA02F59D4234
:1004200005D303FA02F5491B04FA02F52844151E08
:10043000A2F10102F1DC30BD2DE9F05F054600209C
:1004400092469B4688460646814640241BE0284645
:10045000414647462246FFF765FE53465A46C01AB4
:10046000914110D311461846224600F093F92D1AF7
:1004700067EB01084F4622460120002100F08AF96F
:1004800017EB00094E41201EA4F10104DFDC4846B1
:1004900031462A464346BDE8F09F0029A8BF704771
:1004A000401C490008BF20F00100704710B4B0FAAA
:1004B00080FC00FA0CF050EA010404BF10BC704745
:1004C00049B1CCF1200421FA04F411FA0CF118BF5F
:1004D000012121430843A3EB0C01CB1D4FEA00612E
:1004E0004FEA102042BF002010BC704700EBC35001
:1004F00010440029A4BF10BC7047401C490008BF2D
:1005000020F0010010BC704710B5141E73F10004F8
:1005100008DA401C41F1000192185B411A4301D1F5
:1005200020F0010010BD2DE9F04D92469B4611B11F
:10053000B1FA81F202E0B0FA80F22032904600F087
:1005400029F904460F4640EA0A0041EA0B015346E6
:100550005A46084313D0114653EA010019D0C8F196
:1005600040025046FFF7DEFD05460E46504659460E
:10057000424600F00FF9084305D0012004E0204670
:100580003946BDE8F08D0020054346EAE0762C436D
:1005900037430A986305E40AA0EB08000022FD0A2D
:1005A00044EA47540A3002D500200146E9E7010534
:1005B00010196941DDE9084500196941BDE8F04DB0
:1005C000A2E72DE9FE4F804681EA0300C00F0C46EA
:1005D000009021F0004123F00045B8EB0200A94152
:1005E00005D24046214690461C460B46024623F063
:1005F0000040104347D0270DC7F30A00C3F30A5148
:100600000290401A019040286BDAC3F3130040F4C3
:10061000801B0098924620B10023D2EB030A63EBC3
:100620000B0B01985946C0F14002504600F0B2F859
:1006300006460D4650465946019A00F0BAF810EBAE
:1006400008006141002487EA115284EAE7731A43E3
:1006500040D0009A62B3019A012A4FEA075215DC92
:10066000001B61EB02014FF0004202EA0752CDE9A4
:100670000042001C41F5801132462B46FFF753FF24
:1006800003B0BDE8F08F40462146F9E7001B61EB5F
:100690000201001C41F5801300185B412018A2F5EF
:1006A000001747EB030140EAD570B6196D4111E020
:1006B0006D084FEA360645EAC0754FEA0752001B3F
:1006C00061EB0201001C41F5801149084FEA30003E
:1006D0000019514132462B4603B0BDE8F04FFFF7F9
:1006E00013BF0098012240000023D0EB020263EB0D
:1006F000E073009821464FEAE074B8EB000061EB2C
:100700000401E9E783F000435BE781F0004158E72B
:10071000C1F30A52C1F3130140F2FF3341F48011D7
:100720009A4202DA00200146704740F233439A426F
:10073000A2F2334202DC5242FFF7F4BC00F02AB8C6
:1007400030B5041E71F1000404DB4FF00044404258
:1007500064EB0101141E73F1000405DB1C464FF02D
:100760000043524263EB0403994208BF904230BDFC
:10077000064C074D06E0E06840F0010394E80700EE
:1007800098471034AC42F6D3FFF7B4FCAC530008E2
:10079000CC530008202A04DB203A00FA02F10020A2
:1007A00070479140C2F1200320FA03F319439040AF
:1007B0007047202A06DBCB17203A41FA02F043EAC1
:1007C000E07306E041FA02F3D040C2F1200291400A
:1007D00008431946704770B50446002520688068B4
:1007E00000F0010018B32068806820F00100216843
:1007F000886001F0F9F9054613E001F0F5F9401BB6
:1008000002280ED92068806800F0010048B1A06A73
:1008100040F01000A062E06A40F00100E0620120B8
:1008200070BD2068806800F001000028E5D100203C
:10083000F6E7000038B50446002500200090206847
:10084000806800F0010078BB2068806840F00100FB
:1008500021688860194800681949B0FBF1F00090E0
:1008600002E00098401E009000980028F9D101F0A5
:10087000BBF9054619E001F0B7F9401B022814D96D
:100880002068806800F0010078B9A06A40F010008C
:10089000A062E06A40F00100E06200BF002084F83E
:1008A000240000BF012038BD05E02068806800F00A
:1008B00001000028DFD00020F5E700000C00002038
:1008C00040420F0010B50A4800F066FD10B109A0C3
:1008D00003F036FF6421064800F09EFC28B9044866
:1008E00000F0BCFB0446204610BD0020FCE70000E1
:1008F0006400002041444320737461727420657267
:10090000726F720D0A00000000BFFEE770B504466A
:10091000A188206801F050F908B9012000E000200A
:10092000064601F061F90546A079B0420CD0E068B6
:10093000281AA168884207D9A671E560012E01D165
:10094000012070BD0220FCE70020FAE7F0B585B079
:1009500004460D4616461F462560A680A760002067
:10096000A071E060214885420DD100BF2048806918
:1009700040F004001E4988610846806900F00400C8
:10098000009000BF21E01B4885420DD100BF1848F0
:10099000806940F00800164988610846806900F0C7
:1009A0000800009000BF10E0134885420DD100BF41
:1009B0000F48806940F010000D4988610846806941
:1009C00000F01000009000BF00BF002001900290D6
:1009D000039004900196029001200390022004905D
:1009E00001A9284600F058FF05B0F0BD00080140FD
:1009F00000100240000C01400010014008B50548FD
:100A000000680090BDF8001008469DF8021040EA0A
:100A1000014008BD300000207FB505460C4600208F
:100A200000900190029003900094019002900320A6
:100A300003906946284600F02FFF7FBD7FB505462D
:100A40000C46002000900190029003900094012039
:100A5000019000200290032003906946284600F090
:100A60001BFF7FBD08B5034800880090BDF800104B
:100A7000084608BD330000202DE9FC478046894622
:100A80001546002400200090019049464046FFF79B
:100A9000D5FF00224946404601F0A0F8122000F0A0
:100AA000E7FE01224946404601F098F8142004F080
:100AB000DBFA49464046FFF7AFFF4946404601F0A2
:100AC0007BF8002842D104E0012004F0CDFA601C3C
:100AD000C4B24946404601F06FF808B9642CF3DB14
:100AE000002404E0012004F0BFFA601CC4B24946AF
:100AF000404601F061F8012801D1642CF2DB0024AA
:100B0000002607E04946404600F052F80DF806007E
:100B1000701CC6B2052EF5DB9DF800009DF8011093
:100B200008449DF8021008449DF803100844C7B219
:100B30009DF80400B84208D19DF8000028709DF887
:100B4000020068700120BDE8FC8700BF0020FAE7C2
:100B50002DE9F04105460E460024002704E001205F
:100B600004F082FA601CC4B23146284601F024F831
:100B700008B9642CF3DB0024282004F075FA314610
:100B8000284601F019F8012800D1012704E00120CE
:100B900004F06AFA601CC4B23146284601F00CF831
:100BA000012801D1642CF2DB00243846BDE8F08135
:100BB0002DE9F04106460F460024002508E06006B6
:100BC000040E39463046FFF7C3FF0443681CC5B224
:100BD000082DF4DB2046BDE8F081000010B5024886
:100BE00000F0F6FC10BD0000F801002010B502482E
:100BF00000F0EEFC10BD0000B401002030B590F80C
:100C000040500124AC40C56B6C600468636044686C
:100C1000102C04D10468A2600468E16003E0046859
:100C2000A1600468E26030BD704700002DE9F04724
:100C3000FFF748FE1949086008460068FFF799FB6E
:100C40008246FFF79BFB06464FF06632144BFFF7D8
:100C5000AFFA04460022134BFFF71CFB8046FFF758
:100C6000B9FB1149086008460068FFF787FB044696
:100C70000E4A0F4BFFF796FB0DD24FF47A710D48D9
:100C8000006802F00CFD30B100F0AEFF09490860C9
:100C9000094802F091FDBDE8F087000048000020FF
:100CA00066660A4000FEAF404C000020CDCCCCCCA4
:100CB000CCCCF83F500000202000002010B51C488C
:100CC0001C4908601020888019481B490860802052
:100CD00088801A481A4988610020C8610420086287
:100CE0000821164802F044FD154802F01FFF114884
:100CF00002F0E2FC104802F0DFFC32234FF4807275
:100D000010491148FFF722FE32234FF400720D49BB
:100D10000E48FFF71BFE322310220A490C48FFF74A
:100D200015FE04F093F90B4803F040FA10BD0000E3
:100D3000000801401800002020000020DC000020F6
:100D400054040020000C0140780400208804002096
:100D5000980400202401002072B600BFFEE70000C6
:100D600010B5044634B1012C0AD0022C0ED0032C4D
:100D700018D111E0002211460F4802F0E2FE12E005
:100D8000192200210C4802F0DCFE0CE03222002186
:100D9000094802F0D6FE06E04B220021064802F088
:100DA000D0FE00E000BF00BF00200449087000F042
:100DB0001BFF0349086010BD5404002035000020CB
:100DC0003800002010B50446022C03D1034802F07D
:100DD000C7FC02E0014802F0BBFC10BD1800002077
:100DE000F8B5044600260020009000BF94F82400C7
:100DF000012801D10220F8BD012084F8240000BFA1
:100E00002046FFF7E8FC06462046FFF713FD06469E
:100E1000002E69D1A06A20F4885040F00200A06240
:100E2000022000F0DBFF34490968B1FBF0F040001C
:100E3000009002E00098401E009000980028F9D130
:100E40002068806840F008002168886000F0CCFECF
:100E5000054616E000F0C8FE401B0A2811D920689C
:100E6000806800F0080060B1A06A20F0020040F045
:100E70001000A06200BF002084F8240000BF012001
:100E8000B9E72068806800F008000028E2D12068F7
:100E9000806840F004002168886000F0A5FE0546E7
:100EA00016E000F0A1FE401B0A2811D920688068D6
:100EB00000F0040060B1A06A20F0020040F01000D1
:100EC000A06200BF002084F8240000BF012092E748
:100ED0002068806800F004000028E2D1A06A20F0B9
:100EE000020040F00100A06200BF002084F824004E
:100EF00000BF30467FE700000C00002038B50246F6
:100F000000230020009000BF92F82400012801D1A6
:100F1000022038BD012082F8240000BF486807285D
:100F200012D21068406B0C79641E04EB84051F24F8
:100F3000AC40A0430D796D1E05EB85050C68AC40F7
:100F400020431468606327E048680D2812D21068B7
:100F5000006B0C79E41F04EB84051F24AC40A04314
:100F60000D79ED1F05EB85050C68AC402043146836
:100F7000206311E01068C06A0C790D3C04EB840515
:100F80001F24AC40A0430D790D3D05EB85050C6891
:100F9000AC4020431468E06208680A2812D3106845
:100FA000C0680C780A3C04EB44050724AC40A0431D
:100FB0000D780A3D05EB45058C68AC40204314686C
:100FC000E0600FE0106800690C7804EB440507242A
:100FD000AC40A0430D7805EB45058C68AC40204340
:100FE000146820610868102802D00868112827D1E9
:100FF000174C1068A0421ED11068806800F40000F1
:10100000F0B91068806840F400001468A0600868B7
:10101000102815D10F4800680F4CB0FBF4F000EB1E
:1010200080004000009002E00098401E0090009870
:101030000028F9D104E0906A40F02000906201237A
:1010400000BF002082F8240000BF184661E70000BE
:10105000002401400C00002040420F0001460868B7
:10106000C06C70472DE9F04104460027002500269A
:10107000A84614B90120BDE8F081A06810B1207D18
:1010800000B100BFA06A30B90020E06284F82400FB
:10109000204600F089F82046FFF79DFB0746A06A2E
:1010A00000F01000002873D1002F71D1A06A20F445
:1010B000885040F00200A062E16960680843217B2B
:1010C00040EA41000643A068B0F5807F02D0A068E6
:1010D000012802D14FF4807000E000200543207DFC
:1010E000012811D1207B38B9A069401E4FF400615E
:1010F00041EA4030054307E0A06A40F02000A062CA
:10110000E06A40F00100E0622068406820F4694035
:10111000284321684860206880682149084030439E
:1011200021688860A068B0F5807F02D0A06801289F
:1011300002D14FF4807000E00020B0F5807F03D131
:10114000208A401E4FEA00582068C06A20F47000D0
:1011500040EA08002168C862206880681149084098
:10116000B04208D10020E062A06A20F0020040F006
:101170000100A06211E0A06A20F0020040F010001F
:10118000A062E06A40F00100E062012705E0FFE7AD
:10119000A06A40F01000A062012738466BE700000B
:1011A000FDF7E1FFFE0E1FFF10B586B004460020DC
:1011B000029003900490059014492068884222D13F
:1011C00000BF1348806940F40070114988610846E7
:1011D000806900F40070019000BF00BF00BF0846A6
:1011E000806940F0040088610846806900F00400CE
:1011F000019000BF00BF402002900320039002A98D
:10120000044800F049FB06B010BD00000024014076
:101210000010024000080140F8B504460D460026C3
:1012200000200090002700F0DFFC06462068806860
:1012300000F4807050B1A06A40F02000A06200BFAE
:10124000002084F8240000BF0120F8BD2068406819
:1012500000F4807020BB2068C06A00F47000F8B908
:1012600017E0681CA8B125B100F0BEFC801BA842A5
:101270000FD92068006800F0020050B9A06A40F061
:101280000400A06200BF002084F8240000BF0320F7
:10129000DBE72068006800F002000028E1D053E09E
:1012A000022000F09BFD38490968B1FBF0F021688D
:1012B0000969364A114091B92168C96892111140F3
:1012C00069B921680969324A114031B92168C96890
:1012D0009211114009B9142117E0292115E0216864
:1012E00009692B4A114021B92168C968921111403E
:1012F00041B121680969274A114029B92168C968A3
:10130000114009B9542100E0FC2100FB01F718E06D
:10131000681C98B125B100F067FC801BA8420DD96C
:101320000098B8420AD2A06A40F00400A06200BF50
:10133000002084F8240000BF032086E70098401CAA
:1013400000900098B842E3D36FF012002168086063
:10135000A06A40F40070A0622068806800F46020F9
:10136000B0F5602F0DD1207B58B9A06A20F48070B1
:10137000A062A06A00F4805018B9A06A40F0010091
:10138000A062002061E700000C00002024499224A4
:10139000922449124992240070B50446002500BFEA
:1013A00094F82400012801D1022070BD012084F8A6
:1013B000240000BF2046FFF73DFA0546002D77D1F7
:1013C000A06A40F20121884340F48070A0623C4949
:1013D0002068884208D13B48006800F4702008B9B2
:1013E000012002E0002000E0012078B1A06A20F492
:1013F0008010A0622068406800F4806000B3A06A9A
:1014000020F4005040F48050A06219E0A06A40F43B
:101410008010A0622B49091F2068884203D0284908
:101420002068884204D12748006800F4806000E00A
:10143000002028B1A06A20F4005040F48050A0623F
:10144000A06A00F4805020B1E06A20F00600E0625B
:1014500001E00020E06200BF002084F8240000BF0B
:10146000C01E216808602068806800F46020B0F524
:10147000602F16D112492068884208D111480068AF
:1014800000F4702008B9012002E0002000E00120F3
:1014900038B12068806840F4A000216888600CE0C2
:1014A00006E02068806840F480102168886004E0CD
:1014B00000BF002084F8240000BF284675E7000024
:1014C00000280140042401400146002291F8210037
:1014D000022808D00420886300BF002081F8200083
:1014E00000BF012070470868006820F00E000B68FC
:1014F00018600868006820F001000B68186091F817
:10150000403001209840CB6B5860012081F82100C9
:1015100000BF002081F8200000BF1046E2E7000075
:1015200070B50446002594F82100022803D0042059
:10153000A063012548E02068006820F00E002168C3
:1015400008602068006820F00100216808601F49D9
:101550002068884201D1012026E01C49143120680E
:10156000884201D110201FE01849283120688842A4
:1015700001D1801518E015493C312068884201D11D
:10158000801411E0114950312068884202D14FF493
:10159000803009E00D4964312068884202D14FF45F
:1015A000801001E04FF08070084908394860012040
:1015B00084F8210000BF002084F8200000BF606B89
:1015C00010B12046616B8847284670BD0800024074
:1015D00070B50446E06B05682068066894F8401012
:1015E000042088402840002846D006F00400002847
:1015F00042D02068006800F0200028B92068006808
:1016000020F004002168086057492068884201D111
:10161000042027E0544914312068884201D1402039
:1016200020E0514928312068884201D1001519E095
:101630004D493C312068884202D14FF4804011E08E
:10164000494950312068884202D14FF4802009E096
:10165000454964312068884202D14FF4800001E09E
:101660004FF08060404908394860E06A00287AD02D
:101670002046E16A884776E094F8401002208840CE
:101680002840A0B306F0020088B32068006800F08C
:10169000200040B92068006820F00A002168086036
:1016A000012084F8210030492068884201D10220BD
:1016B00028E02D4914312068884201D1202021E002
:1016C000294928312068884201D140151AE026496D
:1016D0003C312068884202D14FF4005012E0224988
:1016E00050312068884203D14FF400300AE017E0FF
:1016F0001D4964312068884202D14FF4001001E096
:101700004FF0007018490839486000BF002084F885
:10171000200000BFA06A30B32046A16A884722E0BB
:1017200094F84010082088402840E0B106F00800F6
:10173000C8B12068006820F00E002168086094F8A5
:10174000401001208840E16B48600120A06384F8CC
:10175000210000BF002084F8200000BF206B10B1E2
:101760002046216B884770BD0800024001460022D8
:1017700009B901207047164B0868C01A1423B0FB42
:10178000F3F08000086412480838C863022081F82A
:1017900021000868026843F6F0708243D1E9010332
:1017A0001843CB6818430B6918434B6918438B697E
:1017B0001843CB691843024308680260002088631D
:1017C000012081F82100002081F8200000BFD1E72E
:1017D000080002402DE9F04104460D4616461F461A
:1017E0004FF0000800BF94F82000012802D1022029
:1017F000BDE8F081012084F8200000BF94F82100AA
:1018000001282CD1022084F821000020A063206848
:10181000006820F00100216808603B4632462946F6
:101820002046FFF7EBF9E06A30B12068006840F02D
:101830000E00216808600BE02068006820F00400BA
:10184000216808602068006840F00A00216808608C
:101850002068006840F001002168086006E000BFD1
:10186000002084F8200000BF4FF002084046BFE788
:1018700070B5044600F0B8F906462546681C10B15C
:1018800004480078054400BF00F0AEF9801BA84270
:10189000FAD370BD080000202DE9F8470346002266
:1018A00094466EE14FF0010808FA02F4D1F8008086
:1018B00008EA0400A0427DD1DFF8DCA2D1F8048060
:1018C000A8EB0A09D0453AD014DCB8F1030F50D088
:1018D00009DCB8F1000F31D0B8F1010F1CD0B8F11C
:1018E000020F49D120E0B8F1110F18D0B8F1120F52
:1018F00042D11EE0B9F5881F25D006DCB9F5803F3E
:1019000020D0B9F5801F37D11AE0B9F5001F18D0E3
:10191000B9F5041F30D117E0D1F80CC02DE0D1F893
:101920000C8008F1040C28E0D1F80C8008F1080CB8
:1019300023E0D1F80C8008F10C0C1EE000BF00BFC2
:1019400000BF00BF00BF00BFD1F80880B8F1000F92
:1019500002D14FF0040C0BE0D1F80880B8F1010F70
:1019600003D14FF0080C1C6102E04FF0080C5C61E1
:1019700003E04FF0000C00E000BF00BFFF2801D8DB
:10198000984601E003F104084646FF2802D84FEAD2
:10199000820803E0A2F108084FEA88084746D6F813
:1019A00000804FF00F0909FA07F928EA09080CFA34
:1019B00007F900E088E048EA0908C6F80080D1F895
:1019C000048008F08058B8F1805F7DD100BFDFF857
:1019D000CC81D8F8188048F00108DFF8C091C9F828
:1019E0001880C846D8F8188008F00108CDF80080A3
:1019F00000BF00BF4FEAB9384FEA920958F82950A2
:101A00004FEA82784FEA18794FF00F0808FA09F880
:101A100025EA0805DFF88881434502D14FF0000828
:101A200016E0DFF88081434502D14FF001080FE056
:101A3000DFF87481434502D14FF0020808E0DFF877
:101A40006C81434502D14FF0030801E04FF00408D8
:101A50004FEA82794FEA197908FA09F848EA050548
:101A6000DFF84C814FEA920948F82950D1F80480F8
:101A700008F48018B8F5801F0AD1DFF83881D8F84B
:101A8000008048EA0008DFF82C91C9F8008009E0DE
:101A9000DFF82081D8F8008028EA0008DFF81491E8
:101AA000C9F80080D1F8048008F40018B8F5001FC8
:101AB00010D1DFF8008108F10408D8F8008048EA66
:101AC0000008DFF8F09000E05AE009F10409C9F8D5
:101AD00000800DE0DFF8DC8008F10408D8F8008011
:101AE00028EA0008DFF8CC9009F10409C9F8008061
:101AF000D1F8048008F40038B8F5003F0ED1DFF8C3
:101B0000B480A8F10408D8F8008048EA0008DFF89B
:101B1000A490A9F10409C9F800800DE0DFF89480D1
:101B2000A8F10408D8F8008028EA0008DFF88490BB
:101B3000A9F10409C9F80080D1F8048008F48038BC
:101B4000B8F5803F0ED1DFF86C80A8F10808D8F80E
:101B5000008048EA0008DFF85C90A9F10809C9F89C
:101B600000800DE0DFF84C80A8F10808D8F800806C
:101B700028EA0008DFF83C90A9F10809C9F80080BC
:101B8000521CD1F8008028FA02F8B8F1000F7FF457
:101B900089AEBDE8F8870000000011100010024077
:101BA00000080140000C01400010014000140140F9
:101BB0000800014008040140024693680B400BB145
:101BC000012000E00020704710B5C26821EA02033E
:101BD00002EA010443EA0443036110BD0AB1016152
:101BE00001E00B0403617047014800687047000082
:101BF00000000020034800680349097808440149AF
:101C000008607047000000200800002010B5084858
:101C1000006840F0100006490860032000F0CAF890
:101C20000F2000F007F800F02BF8002010BD000096
:101C30000020024070B504460E4800784FF47A71D7
:101C4000B1FBF0F00C490968B1FBF0F5284600F053
:101C500031FD08B1012070BD102C07D200222146B1
:101C6000501E00F069F80548046001E00120F2E729
:101C70000020F0E7080000200C00002004000020F5
:101C800008B500BF1148806940F001000F49886124
:101C90000846806900F00100009000BF00BF00BF4F
:101CA0000846C06940F08050C8610846C06900F02D
:101CB0008050009000BF00BF00BF0549486820F079
:101CC000E06040F00070486000BF08BD00100240B6
:101CD0000000014010B501460846002817DB00F05F
:101CE0001F0301229A400B4B440943F8242000BFF4
:101CF00000BF00BFBFF34F8F00BF00BF00BF00BFDA
:101D000000BF00BFBFF36F8F00BF00BF00BF00BFA9
:101D100010BD000080E100E001460846002809DB14
:101D200000F01F0301229A4043099B0003F1E023C6
:101D3000C3F8002100BF70472DE9F05F80460D46D3
:101D40001646002702F00CFD074639462A46334660
:101D500001F00700C0F1070ABAF1040F02D94FF0F1
:101D6000040A01E0C0F1070AD14600F1040ABAF101
:101D7000070F02D24FF0000A01E0A0F1030AD44697
:101D80004FF0010A0AFA09FAAAF1010A0AEA020A5C
:101D90000AFA0CFA4FF0010B0BFA0CFBABF1010B3A
:101DA0000BEA030B4AEA0B042146404602F0E0FC32
:101DB000BDE8F09F00BF00F00702064B19684FF620
:101DC000FF031940044B0B4343EA0221014B196006
:101DD00000BF70470CED00E00000FA052DE9F04768
:101DE00006464FF00008002500270024A146012EDA
:101DF00031D0022E56D0102E5FD132484468006890
:101E000000F0807008B33048C4F38341475C04F4A9
:101E1000803078B12B484068C0F340402B4911F81E
:101E2000008004F4803040B12948B0FBF8F000FB9A
:101E300007F502E0274807FB00F52248406800F458
:101E40008000B0F5800F01D1A94603E068000321AE
:101E5000B0FBF1F932E01B48046A04F44070B0F5BD
:101E6000807F05D104F0020010B14FF4004918E062
:101E700004F44070B0F5007F07D11248406A00F0CA
:101E8000020010B149F640490BE004F44070B0F58F
:101E9000407F06D10B48006800F4003008B14FF2D3
:101EA00024490BE000F08CF906494968C1F38131FF
:101EB000491C4900B0FBF1F900E000BF00BF4846F3
:101EC000BDE8F087001002408053000890530008DE
:101ED00000127A0000093D00F8B5044600260025EE
:101EE000207800F0010000286BD000274348C0692B
:101EF00000F0805070B900BF4048C06940F0805089
:101F00003E49C8610846C06900F08050009000BF9B
:101F100000BF01273A48006800F48070B0B9384823
:101F2000006840F4807036490860FFF75DFE0646A1
:101F300006E0FFF759FE801B642801D90320F8BD95
:101F40002F48006800F480700028F2D02B48006A07
:101F500000F440752DB3A08800F44070A84220D052
:101F60002648006A20F440750120264908600020B8
:101F700008602248056205F0010090B1FFF734FEC9
:101F8000064608E0FFF730FE801B41F288318842A8
:101F900001D90320D3E71948006A00F002000028A5
:101FA000F0D01648006A20F4407061680843134975
:101FB0000862012F04D10846C06920F08050C86132
:101FC00000BF207800F00200022807D10B484068CB
:101FD00020F44040A168084308494860207800F098
:101FE0001000102807D10548406820F48000E168FF
:101FF0000843024948600020A1E7000000100240A9
:10200000007000404004424270B504460D460CB9D1
:10201000012070BD5A48006800F00700A8420ED2A7
:102020005748006820F007002843554908600846D3
:10203000006800F00700A84201D00120E9E72078FD
:1020400000F0020002281DD1207800F004000428CE
:1020500005D14C48406840F4E0604A494860207827
:1020600000F00800082805D14648406840F4605058
:10207000444948604348406820F0F000A1680843A4
:1020800040494860207800F0010078B3606801287A
:1020900006D13C48006800F4003090B90120B8E750
:1020A0006068022806D13748006800F0007040B927
:1020B0000120AEE73348006800F0020008B90120B3
:1020C000A7E73048406820F00300616808432D49C5
:1020D0004860FFF789FD064609E0FFF785FD801B94
:1020E00041F28831884202D9032092E707E025486F
:1020F000406800F00C006168B0EB810FEDD1204822
:10210000006800F00700A8420ED91D48006820F0C2
:10211000070028431A4908600846006800F00700D5
:10212000A84201D0012074E7207800F004000428C0
:1021300007D11448406820F4E060E1680843114981
:102140004860207800F00800082808D10D48406851
:1021500020F46050216940EAC1000A49486000F05B
:102160003FF808494968C1F30311074A515CC84068
:102170000649086006480068FFF75CFD002048E754
:102180000020024000100240925300080C00002082
:102190000400002001480068704700000C00002087
:1021A00000B5FFF7F7FF04494968C1F30221034A6C
:1021B000515CC84000BD000000100240A25300085E
:1021C00000B5FFF7E7FF04494968C1F3C221034A9C
:1021D000515CC84000BD000000100240A25300083E
:1021E00070B500210022002400230020134D6968EF
:1021F00001F00C05F5B1042D02D0082D19D101E034
:102200000F4819E00F4DC1F38346AB5D01F48035F3
:1022100055B10A4D6D68C5F340450B4E725D084DD2
:102220005D43B5FBF2F402E0084D03FB05F42046E4
:1022300002E000BF024800BF00BF70BD00100240B6
:1022400000127A006E5300087E53000800093D001A
:10225000F8B504460CB90120F8BD207800F0010063
:10226000002878D0F848406800F00C0004280CD012
:10227000F548406800F00C00082811D1F248406889
:1022800000F48030B0F5803F0AD1EF48006800F4D8
:10229000003000285FD0606800285CD10120DBE7B7
:1022A00000BF6068B0F5803F06D1E748006840F4A1
:1022B0008030E549086028E0606858B9E248006865
:1022C00020F48030E04908600846006820F480204F
:1022D00008601AE06068B0F5A02F0BD1DA480068FA
:1022E00040F48020D84908600846006840F48030F7
:1022F00008600AE0D448006820F48030D2490860C1
:102300000846006820F48020086000BF606888B13B
:10231000FFF76AFC054606E0FFF766FC401B6428F1
:1023200001D9032098E7C848006800F4003000286D
:10233000F2D010E0FFF758FC054606E0FFF754FC2A
:10234000401B642801D9032086E7BF48006800F4D9
:1023500000300028F2D1207800F00200022857D186
:10236000B948406800F00C0050B1B748406800F030
:102370000C00082818D1B448406800F4803098B99F
:10238000B148006800F0020020B12069012801D0A6
:10239000012061E7AC48006820F0F800616940EA7C
:1023A000C100A949086033E02069E8B10120A749CC
:1023B0000860FFF719FC054606E0FFF715FC401B17
:1023C000022801D9032047E79F48006800F0020077
:1023D0000028F2D09C48006820F0F800616940EACB
:1023E000C1009949086013E0002098490860FFF790
:1023F000FBFB054606E0FFF7F7FB401B022801D96F
:10240000032029E79048006800F002000028F2D17C
:10241000207800F0080008282DD1A069B8B101206B
:102420008B490860FFF7E0FB054606E0FFF7DCFBA1
:10243000401B022801D903200EE78348406A00F0C0
:1024400002000028F2D0012001F0BEFB13E00020C2
:102450007F490860FFF7C8FB054606E0FFF7C4FBAD
:10246000401B022801D90320F6E67748406A00F0B5
:1024700002000028F2D1207800F00400042873D173
:1024800000277148C06900F0805070B900BF6E48E5
:10249000C06940F080506C49C8610846C06900F0CE
:1024A0008050009000BF00BF01276A48006800F418
:1024B0008070B0B96748006840F480706549086072
:1024C000FFF792FB054606E0FFF78EFB401B6428F2
:1024D00001D90320C0E65F48006800F4807000283E
:1024E000F2D000BFE068012806D15748006A40F0EA
:1024F00001005549086227E0E06858B95248006A6F
:1025000020F00100504908620846006A20F00400EB
:10251000086219E0E06805280BD14B48006A40F0DA
:102520000400494908620846006A40F00100086258
:102530000AE04548006A20F0010043490862084665
:10254000006A20F00400086200BFE068A0B1FFF755
:102550004BFB054609E0FFF747FB401B41F2883182
:10256000884202D9032077E622E03748006A00F06B
:1025700002000028EFD012E0FFF736FB054608E026
:10258000FFF732FB401B41F28831884201D903201A
:1025900062E62D48006A00F002000028F0D1012F09
:1025A00005D12948C06920F080502749C86100BF83
:1025B000E069C8B32448406800F00C00082860D0E7
:1025C000E069022848D1002020490866FFF70CFB8B
:1025D000054606E0FFF708FB401B022801D903204F
:1025E0003AE61948006800F000700028F2D1206A2D
:1025F000B0F5803F07D11448406820F40030A1684E
:10260000084311494860D4E9080108430E49496864
:1026100021F4741108430C49486001200B490866F5
:10262000FFF7E2FA054607E03DE0FFF7DDFA401B61
:10263000022801D903200FE60348006800F000706B
:102640000028F2D02FE000000010024000004242BB
:102650008004424200700040002014490866FFF7E1
:10266000C3FA054606E0FFF7BFFA401B022801D96E
:102670000320F1E50E48006800F000700028F2D158
:1026800011E0E069012800D1E6E50948466806F452
:102690008031206A814204D106F47011606A81425F
:1026A00001D00120D8E50020D6E50000000042421C
:1026B0000010024070B504462546681EB0F1807FC8
:1026C00001D301200FE0681E4FF0E02148610F2187
:1026D0004FF0FF3002F04CF800204FF0E02188610D
:1026E00007200861002070BD7047704730B5024672
:1026F0000B4600BF92F83C00012801D1022030BDFA
:10270000012082F83C0000BF022082F83D001068E2
:1027100044681068816824F07004186804431068E5
:102720004460104D1068A8420BD01068B0F1804F83
:1027300007D00D4D1068A84203D00C4D1068A84278
:1027400005D121F0800158680143106881600120A3
:1027500082F83D0000BF002082F83C0000BF00BFAF
:10276000CDE70000002C01400004004000080040BC
:1027700010B504460CB9012010BD94F83D0028B9ED
:10278000002084F83C00204600F026F8022084F85F
:102790003D00211D206801F07BFA012084F84600ED
:1027A00000BF84F83E0001213F2001554020015523
:1027B0004120015500BF00BF012084F842004320A2
:1027C0000155442001554520015500BF012084F8E2
:1027D0003D000020D0E7000038B5044616492068C7
:1027E000884216D100BF1548806940F40060134943
:1027F00088610846806900F40060009000BF00BF57
:10280000002211461920FFF797FA1920FFF784FAE2
:1028100011E02068B0F1804F0DD100BF0748C069BA
:1028200040F001000549C8610846C06900F0010098
:10283000009000BF00BF38BD002C014000100240D6
:10284000014691F83D00012801D001207047022087
:1028500081F83D000868C06840F001000B68D8604E
:10286000124B086898420BD00868B0F1804F07D02F
:102870000F4B0868984203D00E4B086898420CD161
:102880000868806800F00702062A0CD00868006813
:1028900040F001000B68186005E00868006840F02F
:1028A00001000B6818600020D0E70000002C0140F8
:1028B00000040040000800402DE9F04104460D46A8
:1028C000002700BF94F83C00012802D10220BDE897
:1028D000F081012084F83C0000BF022084F83D0014
:1028E0002068866826F0770626F47F462068866092
:1028F0002868502833D00CDC202850D004DC002875
:102900004BD0102851D149E0302849D040284CD133
:1029100039E060282DD0702807D0B0F5805F03D053
:10292000B0F5005F41D10DE041E0D5E902136A68DE
:10293000206801F000FA2068866846F07706206873
:10294000866034E0D5E902136A68206801F0F3F983
:102950002068806840F480402168886027E0EA6849
:102960006968206801F0B8FA5021206801F0EEF99A
:102970001DE0EA686968206801F0C1FA60212068FA
:1029800001F0E4F913E0EA686968206801F0A4FA4C
:102990004021206801F0DAF909E000BF00BF00BF64
:1029A0002968206801F0D2F901E0012700BF00BFCB
:1029B000012084F83D0000BF002084F83C0000BFE7
:1029C000384684E7704770B504462068C5682068BB
:1029D000066906F00200022819D105F0020002285B
:1029E00015D1401F21680861012020772068806987
:1029F00000F0030018B12046FFF7E4FF05E0204691
:102A000000F0E8F8204600F09CF90020207706F05E
:102A10000400042819D105F00400042815D1C0438E
:102A200021680861022020772068806900F44070E6
:102A300018B12046FFF7C6FF05E0204600F0CAF8AF
:102A4000204600F07EF90020207706F008000828D4
:102A500019D105F00800082815D1C0432168086184
:102A6000042020772068C06900F0030018B12046D8
:102A7000FFF7A8FF05E0204600F0ACF8204600F084
:102A800060F90020207706F01000102819D105F019
:102A90001000102815D1C043216808610820207754
:102AA0002068C06900F4407018B12046FFF78AFF23
:102AB00005E0204600F08EF8204600F042F90020A4
:102AC000207706F0010048B105F0010030B16FF049
:102AD000010021680861204600F09EF906F08000A0
:102AE000802809D105F08000802805D1C0432168E5
:102AF00008612046FFF7F8FD06F04000402809D1A4
:102B000005F04000402805D1C043216808612046F7
:102B100000F010FA06F02000202809D105F020006E
:102B2000202805D1C043216808612046FFF7DDFD5C
:102B300070BD000010B586B00446002002900390DE
:102B4000049005902068B0F1804F38D100BF1D4837
:102B5000806940F004001B4988610846806900F0E4
:102B60000400019000BF00BF00BF0846806940F02C
:102B7000080088610846806900F00800019000BFE5
:102B800000BF0320029002200390059002A90E4886
:102B9000FEF782FE4FF44060029002200390059001
:102BA00002A90A48FEF778FE00BF0949486820F4E8
:102BB000407040F0E06040F40070486000BF06B034
:102BC00010BD00000010024000080140000C014050
:102BD0000000014070472DE9F04104460D461646BD
:102BE000002700BF94F83C00012802D10220BDE874
:102BF000F081012084F83C0000BF36B1042E1BD0C8
:102C0000082E31D00C2E5ED145E02946206801F017
:102C1000A7F82068806940F0080021688861206872
:102C2000806920F004002168886120688069296932
:102C300008432168886148E02946206801F0C0F80F
:102C40002068806940F4006021688861206880699C
:102C500020F480602168886120688069296940EAE1
:102C600001202168886130E02946206801F0DCF805
:102C70002068C06940F008002168C8612068C06908
:102C800020F004002168C8612068C06929690843F0
:102C90002168C86119E02946206801F0F9F8206828
:102CA000C06940F400602168C8612068C06920F4F0
:102CB00080602168C8612068C069296940EA0120F4
:102CC0002168C86101E0012700BF00BF00BF0020EC
:102CD00084F83C0000BF384689E710B504460CB9BB
:102CE000012010BD94F83D0028B9002084F83C0074
:102CF000204600F025F8022084F83D00211D2068C0
:102D000000F0C6FF012084F8460000BF84F83E00B2
:102D100001213F200155402001554120015500BFB0
:102D200000BF012084F84200432001554420015592
:102D30004520015500BF012084F83D000020D0E768
:102D40007047704770B504460D4615B994F83E00BB
:102D50000BE0042D02D13F20005D06E0082D02D1DA
:102D60004020005D01E04120005D012801D00120EC
:102D700070BD1DB9022084F83E000EE0042D03D181
:102D800002213F20015508E0082D03D102214020F7
:102D9000015502E002214120015501222946206807
:102DA00000F0B8FF19492068884201D1012000E0F5
:102DB000002028B12068406C40F40040216848643D
:102DC0001249206888420BD02068B0F1804F07D0AC
:102DD0000F492068884203D00E49206888420CD1F0
:102DE0002068806800F00706062E0CD02068006876
:102DF00040F001002168086005E02068006840F0AC
:102E00000100216808600020B2E70000002C0140AA
:102E10000004004000080040F8B5044625488442FC
:102E200046D125480088401C234908800846008870
:102E3000B0F57A7F35D121480068401C1F490860F1
:102E400000201D490880FDF7D9FD00901C48BDF801
:102E5000001001809DF802108170FDF703FE0090C4
:102E60001848BDF800100180417817A001F068FCF7
:102E7000134801781AA001F063FC114841781DA0A5
:102E800001F05EFC0E4881781FA001F059FC234838
:102E90000068FDF773FA05462A460B4620A001F0AC
:102EA0004FFC06480068022802D100200349086050
:102EB000F8BD0000940000205E00002054000020B7
:102EC000580000205B0000204C6F672074656D7017
:102ED000657261747572653A25640D0A0000000020
:102EE0004C6F6720427574746F6E313A25640D0A19
:102EF000000000004C6F6720427574746F6E323AA8
:102F000025640D0A000000004C6F67204275747440
:102F10006F6E333A25640D0A000000004C0000205B
:102F200066766F6C745F76616C75653A25660D0A1E
:102F3000000000007047F8B504460D46164694F8A8
:102F4000420020282DD105B10EB90120F8BD012085
:102F500020630020606332462946204601F08CFA47
:102F60000746206B012819D100BF0020009020687F
:102F70000068009020684068009000BF00BF00BF5C
:102F800000BF21680C3151E8001F41F0100021689A
:102F90000C3141E80002002AF3D100E00127384655
:102FA000D4E70220D2E7000070B505460E4614496A
:102FB0002868884223D1134802F09EF988B900247A
:102FC0000CE0104802F098F928B90F48015D0D484F
:102FD00002F0B5F900E003E0601C84B2B442F0DB1B
:102FE00000BF4FF480710848FDF7C5F84FF48072B8
:102FF00005492846FFF79FFF01200449087070BD6E
:10300000003801403C020020A804002028000020D5
:10301000704700002DE9F84F0446206805682068D5
:10302000C668206847694FF00009CA4605F00F09D5
:10303000B9F1000F0AD105F0200038B106F02000E8
:1030400020B1204601F01BF9BDE8F88FB9F1000F5F
:103050007BD007F0010018B906F49070002874D0F6
:1030600005F0010030B106F4807018B1606C40F0DA
:103070000100606405F0040030B107F0010018B1F0
:10308000606C40F00200606405F0020030B107F0AF
:10309000010018B1606C40F00400606405F00800A5
:1030A00048B106F0200010B907F0010018B1606CBB
:1030B00040F008006064606C002845D005F02000F6
:1030C00028B106F0200010B1204601F0D8F82068A1
:1030D0004069C0F3801A606C00F0080010B9BAF1C2
:1030E000000F2CD0204601F071F82068406900F0F4
:1030F000400000B300BF00BF2168143151E8001F39
:1031000021F040002168143141E80002002AF3D187
:1031100000BFE06B50B17748E16B4863E06BFEF7AE
:10312000FFF988B1E06B416B88470DE02046FFF75F
:103130006FFF09E009E02046FFF76AFF04E0204640
:10314000FFF766FF002060647EE7206B012877D1DF
:1031500005F01000002873D006F010000028FAD007
:1031600000BF002000902068006800902068406840
:10317000009000BF00BF2068406900F040000028B8
:103180005FD0E06B006840681FFA80F8B8F1000F6C
:1031900055D0A08D404552DDA4F82E80E06B8069AB
:1031A000202843D000BF00BF21680C3151E8001F28
:1031B00021F4807021680C3141E80002002AF3D12B
:1031C00000BF00BF00BF2168143151E8001F21F08B
:1031D00001002168143141E80002002AF3D100BF48
:1031E00000BF00BF2168143151E8001F21F04000EA
:1031F0002168143141E80002002AF3D100BF2020E9
:1032000084F842000020206300BF00BF21680C3119
:1032100051E8001F21F0100021680C3141E8000244
:10322000002AF3D100BFE06BFEF74EF90220606385
:10323000A08DE28D801A81B22046FFF7B5FE03E72C
:1032400042E0A08DE18D401A1FFA80F8E08DD0B3E6
:10325000B8F1000F37D000BF00BF21680C3151E832
:10326000001F21F4907021680C3141E80002002A0F
:10327000F3D100BF00BF00BF2168143151E8001F27
:1032800021F001002168143141E80002002AF3D145
:1032900000BF202084F842000020206300BF00BF50
:1032A00021680C3151E8001F21F0100021680C3119
:1032B00041E80002002AF3D100BF022060634146CA
:1032C0002046FFF771FEBFE605F0800030B106F042
:1032D000800018B1204601F033F9B5E605F0400052
:1032E00030B106F0400018B1204600F0A5FFABE673
:1032F00000BFA9E6F13F000810B504460CB9012053
:1033000010BDA06900B100E000BF94F8410028B9E9
:10331000002084F84000204600F02AF8242084F899
:1033200041002068C06820F400502168C860204631
:1033300001F024F82068006920F4904021680861B9
:103340002068406920F02A00216848612068C06830
:1033500040F400502168C86000206064202084F898
:10336000410084F842000020606300BFC8E700000D
:1033700010B586B00446002002900390049005909A
:103380005549206888426AD100BF5448806940F49A
:103390008040524988610846806900F4804001906D
:1033A00000BF00BF00BF0846806940F0040088618C
:1033B0000846806900F00400019000BF00BF481576
:1033C0000290022003900320059002A94448FEF7D2
:1033D00063FA4FF48060029000200390049002A9E9
:1033E0003F48FEF759FA3F483F49086000204860CF
:1033F00000213D4881608021C1600021016141615F
:103400008161C161FEF7B2F908B1FDF7A5FC00BF0B
:103410003548E063446200BF3248143833490860DD
:10342000102048600021314881608021C160002166
:10343000016141618161C161FEF798F908B1FDF751
:103440008BFC00BF2948A063446200BF00221146E4
:103450002520FEF771FC2520FEF75EFC39E02449AB
:103460002068884235D100BF1C48C06940F4003054
:103470001A49C8610846C06900F40030019000BFD5
:1034800000BF00BF0846806940F00400886108461C
:10349000806900F00400019000BF00BF042002908A
:1034A000022003900320059002A90D48FEF7F4F9CD
:1034B0000820029000200390049002A90848FEF71B
:1034C000EBF9002211462620FEF736FC2620FEF7F7
:1034D00023FC06B010BD000000380140001002407F
:1034E0000008014058000240B4010020F80100200B
:1034F00000440040704770472DE9F84F04460E46DF
:10350000174699464FF0000A94F84100202850D100
:1035100006B117B90120BDE8F88F002060642120B2
:1035200084F84100FEF760FB8246A784E784A06828
:10353000B0F5805F04D1206910B90025B04602E0E3
:1035400035464FF000081EE05346002280212046F9
:10355000CDF8009001F024F820B1202084F841003B
:103560000320D8E745B9B8F80000C0F30800216887
:10357000486008F1020803E02878216848606D1C63
:10358000E08C401EE084E08C0028DDD15346002210
:1035900040212046CDF8009001F002F820B1202013
:1035A00084F841000320B6E7202084F84100002081
:1035B000B1E70220AFE70000F7B50446154694F8DE
:1035C0004100202836D1019800B10DB90120FEBD7F
:1035D00001982062A584E58400206064212084F89D
:1035E00041001548A16B88621448A16BC862144859
:1035F000A16B08630020A16B486301AE23681A1D0C
:1036000031682B46A06BFEF7E5F86FF040002168AB
:10361000086000BF00BF2168143151E8001F41F06D
:1036200080002168143141E80002002AF3D100BF74
:103630000020CCE70220CAE72D41000885410008A0
:103640000540000830B589B0054610492868884211
:103650001AD1002406E001A801190D4801F056FE18
:10366000601C84B20A4801F03FFE08B9202CF2DB4E
:10367000002C05DD224601A92846FFF79DFF02E048
:1036800000200449087000BF09B030BD0038014077
:103690004803002029000020704700BFFEE770B5F6
:1036A00004460D46FEF7A0FA001BA84201D90120EE
:1036B00070BD0020FCE7000010B586B0044620492C
:1036C00020680860A0888880084600681D498842F4
:1036D0000DD100BF1C48806940F004001A49886180
:1036E0000846806900F00400019000BF12E0144811
:1036F0000068164988420DD100BF1348806940F028
:103700000800114988610846806900F008000190AE
:1037100000BF00BF0020029003900490059008486D
:1037200080880290012003900020049002200590E0
:103730000349086802A9FEF7AFF806B010BD000003
:10374000100000200008014000100240000C014061
:1037500010B50446A18800222068FEF73FFA10BD8C
:1037600010B50446A18801222068FEF737FA10BD83
:1037700070B504460D4629462046FFF7E3FA70BDB2
:1037800030B50B46642A00DD64220468E46A5443C1
:103790006425B4FBF5F113B9046861630BE0042BF5
:1037A00002D10468A16306E0082B02D10468E1633A
:1037B00001E00468216430BD10B50446A18820688A
:1037C000FEF702FA10BD000010B5044634B1012C1A
:1037D0000AD0022C0ED0032C18D111E000220821AF
:1037E0000C48FFF7CDFF12E00A2208210948FFF735
:1037F000C7FF0CE0322208210648FFF7C1FF06E0B0
:10380000642208210348FFF7BBFF00E000BF00BFB0
:1038100010BD0000DC0000200EB5002000900190DB
:10382000029012481249086000211148816001731A
:1038300001754FF46021C16100200D4948600121EC
:103840000B480161FDF70EFC08B1FDF785FA062073
:103850000090012001900020029069460448FDF785
:103860004DFB08B1FDF778FA0EBD000000240140C1
:103870006400002008B500BF0E48406940F0010018
:103880000C4948610846406900F00100009000BF03
:1038900000BF002211460E20FEF74EFA0E20FEF762
:1038A0003BFA002211460F20FEF746FA0F20FEF7E2
:1038B00033FA08BD0010024000B585B00020019029
:1038C00002900390049000BF2848806940F01000E7
:1038D000264988610846806900F01000009000BF0A
:1038E00000BF00BF0846806940F02000886108469C
:1038F000806900F02000009000BF00BF00BF0846B4
:10390000806940F0040088610846806900F0040086
:10391000009000BF00BF00BF0846806940F008006B
:1039200088610846806900F00800009000BF00BF71
:103930000022B0210E48FEF751F9B020019001207D
:103940000290002003900220049001A90848FDF78E
:10395000A3FF4FF4447001900020029001200390D7
:1039600001A90448FDF798FF05B000BD0010024012
:1039700000080140000C014000B587B00020039012
:103980000490059006900190029015481549086032
:103990004720486000211348816040F2E731C16050
:1039A0000021016141618161FEF7E2FE08B1FDF78E
:1039B000D3F94FF48050039003A90A48FEF77CFF27
:1039C00008B1FDF7C9F900200190029001A905484E
:1039D000FEF78CFE08B1FDF7BFF907B000BD00008F
:1039E000002C01409400002000B58DB0002009900B
:1039F0000A900B900C90079008901C216846FCF7E9
:103A0000BAFB4FF080402B490860472048600021F6
:103A10002848816040F2E731C16000210161816185
:103A2000FEF7A6FE08B1FDF797F94FF48050099014
:103A300009A92048FEF740FF08B1FDF78DF91D48A0
:103A4000FFF74BF908B1FDF787F9002007900890C0
:103A500007A91848FEF74AFE08B1FDF77DF9602076
:103A600000900020019002900490002269461148C5
:103A7000FFF7B1F808B1FDF76FF9042269460D4868
:103A8000FFF7A9F808B1FDF767F908226946094868
:103A9000FFF7A1F808B1FDF75FF90C226946054868
:103AA000FFF799F808B1FDF757F90248FFF742F818
:103AB0000DB000BDDC00002010B50B480B490860BC
:103AC0004FF4E1304860002108488160C160016125
:103AD0000C21416100218161C161FFF70DFC08B13A
:103AE000FDF73AF910BD0000003801402401002024
:103AF00010B50B480B4908604FF4E13048600021D5
:103B000008488160C16001610C214161002181612F
:103B1000C161FFF7F1FB08B1FDF71EF910BD000010
:103B2000004400406C01002000BFFEE710B50446D1
:103B3000D4E9060100F022F8216AA06900F01EF81D
:103B400010BD70B504460D46164655B93246D4E947
:103B5000060100F01BF80022216AA06900F016F8A7
:103B600009E00022D4E9060100F010F83246216A8B
:103B7000A06900F00BF870BD00BFFEE770B5044609
:103B80000D4629462046FFF7DDF870BD30B50B46DF
:103B9000642A00DD64220468E46A54436425B4FBAB
:103BA000F5F113B9046861630BE0042B02D10468DA
:103BB000A16306E0082B02D10468E16301E0046818
:103BC000216430BD7047000008B508490968C9087C
:103BD0004FF47A72B1FBF2F14143009100BF00BF94
:103BE00000994A1E00920029F9D108BD0C0000205E
:103BF000704710B5FDF7FEFF10BD00B593B028214A
:103C000009A8FCF7B8FA142104A8FCF7B4FA0020BC
:103C100000900190029003900120099000040A9006
:103C200000200B9001200D9002201090C1031191F3
:103C30004FF4E011129109A8FEF70AFB08B1FDF755
:103C40008BF80F20049002200590002006904FF47E
:103C50008060079000200890022104A8FEF7D4F9A4
:103C600008B1FDF779F802200090800302906846C1
:103C7000FEF732F908B1FDF76FF813B000BD7047D9
:103C800010B50248FEF79FFE10BD00009400002012
:103C900010B502681C4B984208D0B0F1804F05D097
:103CA0001A4B984202D01A4B984203D122F070026C
:103CB0004B681A43144B984208D0B0F1804F05D09E
:103CC000124B984202D0124B984203D122F4407218
:103CD000CB681A4322F080034C6943EA0402026075
:103CE0008B68C3620B688362074B984201D10B69F2
:103CF000036301234361036903F001031BB10369FB
:103D000023F00103036110BD002C014000040040BA
:103D10000008004030B501F01F05012404FA05F346
:103D2000046A9C430462046A01F01F0502FA05F567
:103D30002C43046230BD30B50C46816821F47F41CC
:103D400042EA032525432943816030BD0A46816844
:103D500021F0700142F007031943816070470000B1
:103D600030B5026A056A25F0010505624368846979
:103D700024F0700424F003040D682C4322F00202A6
:103D80008D682A430D4DA84206D100BF22F00802DB
:103D9000CD682A4322F00402084DA84207D123F43B
:103DA000807323F400734D692B438D692B4343606B
:103DB00084614D684563026230BD0000002C014003
:103DC00030B5026A056A25F010050562436884690A
:103DD00024F4E04424F440740D6844EA052422F0FD
:103DE00020028D6842EA05120E4DA84207D100BF9D
:103DF00022F08002CD6842EA051222F04002094D0D
:103E0000A84209D123F4806323F400634D6943EA97
:103E100085038D6943EA8503436084614D6885634A
:103E2000026230BD002C014030B5026A056A25F4FB
:103E3000807505624368C46924F0700424F00304AB
:103E40000D682C4322F400728D6842EA05220F4D62
:103E5000A84207D100BF22F40062CD6842EA0522E1
:103E600022F48062094DA84209D123F4805323F43F
:103E700000534D6943EA05138D6943EA0513436016
:103E8000C4614D68C563026230BD0000002C014072
:103E900030B5036A056A25F4805505624468C26935
:103EA00022F4E04222F440720D6842EA052223F433
:103EB00000538D6843EA0533064DA84204D124F42B
:103EC00080444D6944EA85144460C2614D680564CC
:103ED000036230BD002C014030B50B461446026A27
:103EE000056A25F001050562816921F0F00141EACA
:103EF000041122F00A021A438161026230BD30B51A
:103F00000B461446026A056A25F0100505628169B0
:103F100021F4704141EA043122F0A00242EA031286
:103F20008161026230BD000010B5274A2021274878
:103F3000FCF7A2FD90B1244840781E280EDD2448ED
:103F4000007858B1192200212248FFF7FAFDFDF749
:103F50004BFE2149086000201D4908701F48007869
:103F600050B91F491F480068FFF799FB20B1012095
:103F70001A4908701649087018480078022808D1B4
:103F800019491A480068FFF78AFB10B1012013494C
:103F9000087012480078012814D111490E480068B1
:103FA000FFF77DFB70B10A48007858B9FDF71CFE99
:103FB0000E490860002211460648FFF7C2FD0220A4
:103FC0000649087010BD00003300002000080140C1
:103FD00044000020540400203C0000203500002054
:103FE000C0D40100380000200097490140000020A3
:103FF00070B505466C6A0020E085E0842046FFF736
:1040000007F870BD70B506460025746A20684069DF
:10401000C0F3C01594F84100212805D125B1002036
:10402000E084204600F018F920684069C0F380154C
:1040300094F84200222805D125B10020E0852046D1
:1040400000F0C4F8606C40F0100060642046FEF799
:10405000DFFF70BD70B505466C6A2868006800F027
:104060002000002842D1E08500BF00BF21680C314C
:1040700051E8001F21F4807021680C3141E80002F2
:10408000002AF3D100BF00BF00BF2168143151E8FE
:10409000001F21F001002168143141E80002002ACC
:1040A000F3D100BF00BF00BF2168143151E8001FE9
:1040B00021F040002168143141E80002002AF3D1C8
:1040C00000BF202084F84200206B01280ED100BFE1
:1040D00000BF21680C3151E8001F21F01000216859
:1040E0000C3141E80002002AF3D100BF00206063D8
:1040F000206B012804D1A18D2046FEF755FF02E078
:104100002046FFF7F7F970BD70B505466C6A0120CF
:104110006063206B012805D1A08D41082046FEF781
:1041200043FF02E02046FFF7E6F970BD70B5054693
:104130006C6A2868006800F02000F8B90020E0846C
:1041400000BF00BF2168143151E8001F21F080003A
:104150002168143141E80002002AF3D100BF00BFFA
:1041600000BF21680C3151E8001F41F04000216878
:104170000C3141E80002002AF3D102E02046FFF7AB
:1041800061FA70BD70B50446656A2846FFF784FA87
:1041900070BD000010B504464FF4807202492046FD
:1041A000FEF7C9FE10BD0000A804002010B50446AB
:1041B000044801F093F8044801F090F82046FFF716
:1041C000E9FF10BD3C0200204803002000BF00BFF3
:1041D00002680C3252E8002F22F4907102680C320F
:1041E00042E80013002BF3D100BF00BF00BF0268FC
:1041F000143252E8002F22F001010268143242E822
:104200000013002BF3D100BF016B01290ED100BFB9
:1042100000BF02680C3252E8002F22F01001026841
:104220000C3242E80013002BF3D100BF202180F8AC
:10423000421000210163704710B504462068C06831
:1042400020F040002168C860202084F8410020460A
:10425000FFF7F8F9002010BD00BF00BF02680C3264
:1042600052E8002F22F0C00102680C3242E800132D
:10427000002BF3D100BF202180F841107047F8B522
:10428000044694F84200222875D1A068B0F5805FFA
:104290000CD1206950B90025A66A20684068C0F397
:1042A00008003080A06A801CA06215E0A56A002684
:1042B000A068B0F5805F03D0A06828B9206918B95C
:1042C00020684068287004E02068406800F07F00A3
:1042D0002870A06A401CA062E08D401E80B2E0857C
:1042E000002846D12068C06820F020002168C860FE
:1042F0002068C06820F480702168C8602068406928
:1043000020F0010021684861202084F8420000204C
:104310006063206B012826D10020206300BF00BF0E
:1043200021680C3151E8001F21F0100021680C3188
:1043300041E80002002AF3D100BF2068006800F0C5
:10434000100010280AD100BF0020009020680068EB
:10435000009020684068009000BF00BFA18D2046FB
:10436000FEF722FE02E02046FFF7C4F80020F8BD69
:1043700001E00020FBE70220F9E7000070B50446E9
:104380002168096921F44051E268114322681161F2
:104390002269A1681143626941EA02052168C9687E
:1043A00041F20C62914329432268D1602168496936
:1043B00021F44071A2691143226851612D4A21689C
:1043C000914202D1FDF7FCFE01E0FDF7E9FE00EBB2
:1043D000C00101EB001162689200B1FBF2F100EB49
:1043E000C00202EB001263689B00B2FBF3F264238D
:1043F000B2FBF3F202EBC20303EB0212A1EB820168
:10440000322202EB01116422B1FBF2F101F0F00162
:1044100000EBC00202EB001263689B00B2FBF3F2F8
:104420006423B2FBF3F201EB021200EBC00101EBDB
:10443000001163689B00B1FBF3F100EBC00303EBD9
:1044400000136668B600B3FBF6F36426B3FBF6F31D
:1044500003EBC30606EB0313A1EB8301322303EB4B
:1044600001116423B1FBF3F101F00F011144226843
:10447000916070BD0038014077B581B004461546A3
:104480000298A062A58500206064222084F8420082
:104490002848E16B88622848E16BC8622748E16BD5
:1044A00008630020E16B486302AE32682368191D7F
:1044B0002B46E06BFDF78EF900BF002000902068CE
:1044C0000068009020684068009000BF00BF20692D
:1044D00070B100BF00BF21680C3151E8001F41F4EA
:1044E000807021680C3141E80002002AF3D100BF3E
:1044F00000BF00BF2168143151E8001F41F00100E6
:104500002168143141E80002002AF3D100BF00BF46
:1045100000BF2168143151E8001F41F040002168BC
:10452000143141E80002002AF3D100BF002004B09A
:1045300070BD000055400008094100080540000812
:10454000014691F84100212828D18868B0F5805FA4
:104550000BD1086948B90A6A1088C0F308000B68D3
:104560005860086A801C086205E00B6A581C0862E3
:1045700018780B685860C88C401E80B2C88458B93F
:104580000868C06820F080000B68D8600868C068C0
:1045900040F040000B68D860002070470220FCE724
:1045A0002DE9F84304460D4617469846089E31E02B
:1045B000701C70B3FDF718FBA0EB0800B04200D8E8
:1045C00016B90320BDE8F8832068C06800F0040035
:1045D000F8B1802D1ED0402D1CD020680068C0F39B
:1045E000C000B0B100BF00200090206800680090BB
:1045F00020684068009000BF00BF2046FFF7E6FD3E
:104600000820606400BF002084F8400000BF012043
:10461000D8E7FFE7206800682840A84201D10120C0
:1046200000E00020B842C3D00020CBE710B502481C
:10463000FEF7F0FC10BD00002401002010B5024878
:10464000FEF7E8FC10BD00006C01002000BFFEE793
:1046500000200249087048708870704730000020C0
:104660002DE9F04104461948FCF750F90546184871
:10467000FCF74CF906461748FCF748F90746022DA7
:104680000CD12078401C20702078032801DD002008
:10469000207011490878FCF763FB14E0022E08D162
:1046A0006078401C6070607803280CDD002060702A
:1046B00009E0022F07D1A078401CA070A078022842
:1046C00001DD0020A070BDE8F0810000780400202A
:1046D00088040020980400203000002010B5FCF76A
:1046E000EDFA00F025F8FFF7B3FF0448FCF778FB7C
:1046F000002211460248FFF724FA10BD6400002092
:104700005404002010B50948FFF7AAFFFFF70CFC7E
:1047100006494878FFF758F804498878FCF752FBB7
:10472000FCF784FA00F088FD10BD00003000002086
:1047300010B50248FEF784F810BD00009400002078
:104740000FB4054B10B503A9044A029800F0E6F82F
:1047500010BC5DF814FB0000CD5000086000002084
:1047600002480068C0F30220704700000CED00E032
:1047700010B5002804DB0A07130E054A135406E09F
:104780000A07140E034A00F00F031B1FD45410BD78
:1047900000E400E018ED00E002E008C8121F08C1C4
:1047A000002AFAD170477047002001E001C1121FB2
:1047B000002AFBD1704700002DE9FF5FDDE90220F0
:1047C000010DDDF838B0024318D044F61050A1F2C4
:1047D000FF3141430D140F98012820D0A5EB0B00A9
:1047E000401C5FEA000A4FF00004474EDFF81C91BE
:1047F000A046504616D5CAF1000728E00F980124BC
:1048000043A2012808D0002100980F9BC0E9002195
:10481000C0E90243BDE8FF9F6FEA0B01F4E7CBF16B
:104820000000DEE7074612E0F80707D022463346CD
:1048300040464946FBF7BCFC804689462246334643
:1048400010461946FBF7B4FC04460E467F10002FB5
:10485000EAD1DDE90201BAF1000F42464B4602DA25
:10486000FBF7A6FC01E0FBF715FD04460E4600220F
:10487000284BFBF765FF03D84FF0FF30014607E0F8
:104880000022254B20463146FBF79BFEFBF740FFFD
:10489000102409E0002C0ADB0A220023FBF7CCFDE0
:1048A000019B30321A55641E50EA0102F2D1641C99
:1048B000019AC4F1110314440F9A012A03D0012272
:1048C00008430DD10AE0084304D000204FF0110B3B
:1048D0000F9080E7A3EB0B056D1E0DE05B4504DD3B
:1048E0004FF0000205F1010504E003DA4FF0000289
:1048F000A5F10105002AECD000980F99C0E902311A
:10490000C0E9004586E70000000024400000F03FB9
:10491000300000000000F0430000E03F2DE9FF4FB1
:1049200095B09B468946064600250FE2252877D19B
:1049300000242746F84A0121059400E0044316F8B4
:10494000013F203B01FA03F01042F7D130782A28CA
:1049500011D06FF02F033078A0F13002092A16D859
:10496000059A44F0020402EB820203EB4202104477
:10497000761C0590EFE759F8042B0592002A03DA1C
:10498000504244F40054059044F00204761C307800
:104990002E2816D116F8010F44F004042A280DD051
:1049A0006FF02F023078A0F13003092B09D807EB04
:1049B000870302EB4303C718761CF3E759F8047B1F
:1049C000761C30786C280FD006DC4C2817D068286D
:1049D0000DD06A2814D104E0742810D07A280FD1A1
:1049E0000DE044F400140AE044F4801401E044F4BF
:1049F00040147278824202D104F58014761C761C31
:104A0000307866280BD013DC582877D009DC0028D2
:104A100075D04528F6D04628F4D047281AD19DE114
:104A200018E0632835D0642879D0652812D195E143
:104A3000702873D008DC6728F1D069286FD06E2801
:104A40000DD06F2806D1B5E073282CD0752875D00D
:104A5000782874D05A46179990476D1C75E1C4F3B5
:104A60000250022809D003280DD0D9F800100428DC
:104A70000DD00D6009F1040967E1D9F80010EA17BB
:104A8000C1E90052F6E7D9F800100D80F2E70D7089
:104A9000F0E719F8041B8DF8001000208DF80100D4
:104AA000EA46012003E059F804AB4FF0FF306107FC
:104AB0004FF0000102D40DE008F101018846B9422F
:104AC0000FDA8045F8DB1AF808100029F4D108E065
:104AD00008F1010188468142FADB1AF80810002922
:104AE000F6D105985B46A0EB080721463846179A91
:104AF00000F094FA284400EB080507E04DE029E1B6
:104B00000DE01AF8010B5A4617999047B8F10108C1
:104B1000F7D25B4621463846179A13E142E00A2253
:104B20000092C4F302524FF0000A022A08D059F84A
:104B300004CB032A4FEAEC710AD00DE029E02AE009
:104B400009F1070121F00702F2E802C1914609E0EC
:104B50000FFA8CFC4FEAEC71042A03D14FFA8CFC5B
:104B60004FEAEC71002907DA0A460021DCF1000C5B
:104B700061EB02012D2202E0220504D52B228DF8E3
:104B80000420012203E0E20701D02022F7E790464B
:104B900059E00A2102E010220DE010214FF0000A36
:104BA00000910BE010224FF0000A44F004040827A3
:104BB000009203E008224FF0000A0092C4F3025270
:104BC000022A05D059F804CB0021032A08D009E0B5
:104BD00009F1070121F00702F2E802C1914605E060
:104BE0001FFA8CFC042A01D10CF0FF0C4FF00008D6
:104BF000220728D5702806D0009B83F0100353EAC3
:104C00000A0305D00EE040228DF80420012208E0BE
:104C10005CEA010206D030228DF804208DF80500F0
:104C200002229046009B83F0080353EA0A030AD14C
:104C30005CEA010201D1620705D530228DF804201B
:104C40004FF001087F1E582804D034A003900EA80E
:104C500002900DE036A0F9E753466046009AFBF754
:104C6000EBFB84460398825C0298401E029002701F
:104C70005CEA0100F0D1029806A9081A00F1200AA6
:104C8000600702D524F4803400E00127574502DD97
:104C9000A7EB0A0000E0002000EB0A010090059855
:104CA0004144401A0590E00306D45B462146179A1A
:104CB000059800F0B3F90544002706E001A85A461C
:104CC000C05D179990476D1C7F1C4745F6DBE003DC
:104CD0000CD55B462146179A059800F09FF90544CC
:104CE00004E030205A46179990476D1C0099481EE1
:104CF00000900029F5DC08E0029802995A460078F5
:104D0000491C0291179990476D1CBAF10001AAF154
:104D1000010AF1DC65E1000009280100303132337D
:104D200034353637383961626364656600000000E7
:104D300030313233343536373839414243444546D1
:104D40000000000000F058F90544761C3078002877
:104D50007FF4ECAD19B02846BDE8F08F620700D4AF
:104D6000062709F1070222F0070CFCE80223E146BE
:104D700003F000485FEA080C02D00FF2702C0DE03F
:104D80005FEA045C02D50FF2682C07E05FEAC47C9E
:104D900002D00FF2602C01E0AFF2700C4FF0FF3840
:104DA00023F00043CDF850C065280CD006DC452820
:104DB00009D046281DD047283DD13DE0662818D0AF
:104DC00067287ED138E00021112F01DB112000E09F
:104DD000781CCDE9000106A90EA8FFF7EDFCDDE97E
:104DE0000F010E9A03910021009207F1010A04912C
:104DF0004DE04FF000400097CDE9011006A90EA844
:104E0000FFF7DAFCDDE90F0203920E9B11990022F5
:104E1000DDF80CA00093049211B9791C00EB010A93
:104E2000B7EB0A0004D4C0F1FF3007F1010A049087
:104E3000AAEB0700019044E0012F00DA01270021CE
:104E4000112F01DD112000E03846CDE9000106A94F
:104E50000EA8FFF7B1FCDDE90F010E9A03910021C6
:104E600004910092BA4621070CD40399514500DA07
:104E70008A46BAF1010F05DD009AAAF10101515CE1
:104E8000302908D0B84202DA10F1040F06DA012105
:104E9000CDE9011015E0AAF10101E9E7002805DCE0
:104EA000049901440491AAEB000102E0411C514520
:104EB00000DD8A460499401A401C01904FF00040E2
:104EC0000290200704D40198504501DBCDF80480FE
:104ED00000208DF84F0002980DF14F07B0F1004F00
:104EE00025D02B200E9002984FF0020800280CDAF3
:104EF000404202902D200E9007E00A210298FBF715
:104F000085FA3031029007F8011DB8F10001A8F1CF
:104F10000108F2DC02980028EFD1791E0E98087083
:104F2000307800F0200040F0450007F8020D12A88C
:104F3000C01B00F107081498007800B1012000EBB5
:104F40000A01019801EBE07105984144401A401EA6
:104F50000590E00306D45B462146179A059800F0B9
:104F60005DF805441498007818B15A46179990478F
:104F70006D1CE00324D55B462146179A059800F086
:104F80004DF805441CE00498002807DBDDE9030127
:104F9000884203DD0098405C179901E017993020A2
:104FA0005A469047049805F10105401C0490019869
:104FB000401E019004D12E205A46179990476D1C2F
:104FC000BAF10001AAF1010ADDDC05E017F8010BD6
:104FD0005A46179990476D1CB8F10001A8F10108D5
:104FE000F4DC5B462146179A0598ABE62D000000DD
:104FF0002B000000200000002DE9F04104460025B0
:105000001E461746880404D405E039462020B047E0
:105010006D1C641EF9D52846BDE8F0812DE9F041EC
:10502000044600251E469046C80301D5302700E0FF
:105030002027880404D505E041463846B0476D1C5A
:10504000641EF9D52846BDE8F081000010B5FDF7D3
:10505000A1F80349B0FBF1F00249086010BD00005F
:1050600040420F002C00002070B5034600224FF094
:10507000E02675690D4E366803FB06F44FF0E02616
:10508000B16910E04FF0E026B06988420BD0884249
:1050900002D20E1A324402E02E1A0E443244014665
:1050A000A24200D300E0EDE700BF70BD2C0000205D
:1050B000044603E0214602A0FFF742FBFAE70000A6
:1050C0004552524F5225640D0A00000013B50C469C
:1050D0004FF6FF73012269460248FEF70DFA009869
:1050E0001CBD00006C010020FCF790FDFEF785FD63
:1050F000FEF7E2FBFEF7BEFBFEF73EFCFEF774FC9C
:10510000FEF7DAFCFEF7F4FCFEF786FBFFF7E6FAA3
:1051100003A0FFF715FB01E0FFF7F4FAFCE700003E
:1051200048656C6C6F20576F726C64210A00000038
:10513000F8B50026394890F8500000286CD00020BF
:10514000364981F8500036A0FFF7FAFA3348FFF7E6
:10515000F7FA00BF5EE046B936A13048FBF716F813
:10516000040055D10120FFF7A3FF641C31A12046A4
:10517000FBF70CF8050048D0072E2ED2DFE806F02A
:105180002D040B11181F26002A1B214623485230DC
:10519000FAF7D8FF22E02A1B21466846FAF7D2FF29
:1051A0001CE02A1B21461D485D30FAF7CBFF15E0B5
:1051B0002A1B214619486830FAF7C4FF0EE02A1B63
:1051C000214616486A30FAF7BDFF07E02A1B214640
:1051D00012487630FAF7B6FF00E000BF00BF2C4659
:1051E00001200E4981F851009DF80000412803D1AB
:1051F000012081F8780007E09DF80000562803D1CF
:105200000020064981F8780002E00220FFF750FFF5
:10521000701CC6B2062E9EDDF8BD0000A806002058
:105220002A2A2A2A2A2A2A2A2A2A2A2A2A2A0D0A1B
:10523000000000002C00000010B596B0502101A81D
:10524000FAF799FF00242248007801283DD1252053
:10525000FCF740FD31E015A91E4800F057F89DF815
:105260005400242800D100249DF854202046641CBA
:1052700001A90A549DF8040024281ED19DF80800B5
:105280004D281AD19DF80900432816D19DF85400E5
:105290000A2812D150211048FAF76DFF224601A9C1
:1052A0000D48FAF74FFF01200B4981F85000FFF736
:1052B0003FFF0024002006490870064800F014F85B
:1052C0000028C8D02520FCF727FD16B010BD00002F
:1052D000280000203C020020A806002000210160D8
:1052E0004160C0F8081170470146D1F8080108B9BB
:1052F000012070470020FCE70146D1F80801B0F515
:10530000807F01D1012070470020FCE700B50246F4
:105310000B461046FFF7E8FF08B1002000BD02F180
:1053200008005168405C18701079401CC0B2506091
:10533000D2F80801401EC2F808010120EEE700B5CE
:1053400002460B461046FFF7D7FF08B1002000BD0C
:1053500002F10800116843541078401CC0B210607C
:10536000D2F80801401CC2F808010120EFE702034F
:105370000405060708090A0B0C0D0E0F1010010298
:1053800002030405060708090A0B0C0D0E0F101086
:1053900001020000000000000000010203040607F3
:1053A000080900000000010203040000CC530008BB
:1053B00000000020640000009847000830540008F6
:1053C00064000020C40A0000A84700080000000094
:1053D000100000000100000000127A000000000030
:1053E00000000000000000000000000000000000BD
:1053F00000000000000000000000000000000000AD
:10540000000100000000000000000000000000009B
:10541000010000000000000000000000000000008B
:10542000000000000000000000000000000000007C
:04000005080000ED02
:00000001FF
