:020000040800F2
:10000000280A002001010008352D00087B2900087E
:10001000E52C000889060008CD3700080000000024
:10002000000000000000000000000000AD2D0008EE
:100030009909000800000000812D0008AF2D00087C
:100040001B0100081B0100081B0100081B01000820
:100050001B0100081B0100081B0100081B01000810
:100060001B0100081B0100081B0100081B01000800
:100070001B0100081B0100081B0100081B010008F0
:100080005D0900081B0100081B0100081B01000896
:100090001B0100081B0100081B0100081B010008D0
:1000A0001B010008212E00081B0100081B0100088D
:1000B0001B0100081B0100081B0100081B010008B0
:1000C0001B0100081B0100081B0100081B010008A0
:1000D0001B010008AD370008BD3700081B010008F0
:1000E0001B0100081B0100081B010008DFF80CD0F1
:1000F00000F03AFA004800473D420008280A002074
:100100000648804706480047FEE7FEE7FEE7FEE7B1
:10011000FEE7FEE7FEE7FEE7FEE7FEE71D2E00082E
:10012000ED000008202A04DB203A21FA02F0002129
:10013000704721FA02F3D040C2F1200291400843F7
:1001400019467047D2B201E000F8012B491EFBD2DC
:1001500070470022F6E710B513460A4604461946D2
:10016000FFF7F0FF204610BD30B50B4601460020DA
:100170002022012409E021FA02F59D4205D303FA69
:1001800002F5491B04FA02F52844151EA2F10102EA
:10019000F1DC30BD2DE9F05F0546002092469B461C
:1001A00088460646814640241BE02846414647468D
:1001B0002246FFF7B7FF53465A46C01A914110D363
:1001C00011461846224600F0E1F92D1A67EB0108A6
:1001D0004F4622460120002100F0D8F917EB000914
:1001E0004E41201EA4F10104DFDC484631462A4678
:1001F0004346BDE8F09F2DE9FE4F804681EA0300AB
:10020000C00F0C46009021F0004123F00045B8EBF0
:100210000200A94105D24046214690461C460B46A5
:10022000024623F00040104347D0270DC7F30A00D1
:10023000C3F30A510290401A019040286BDAC3F3CD
:10024000130040F4801B0098924620B10023D2EBAB
:10025000030A63EB0B0B01985946C0F1400250466C
:1002600000F094F906460D4650465946019A00F0B2
:100270009CF910EB08006141002487EA115284EADE
:10028000E7731A4340D0009A62B3019A012A4FEAF9
:10029000075215DC001B61EB02014FF0004202EA3D
:1002A0000752CDE90042001C41F5801132462B4631
:1002B00000F09CF903B0BDE8F08F40462146F9E715
:1002C000001B61EB0201001C41F5801300185B412B
:1002D0002018A2F5001747EB030140EAD570B619C4
:1002E0006D4111E06D084FEA360645EAC0754FEAE8
:1002F0000752001B61EB0201001C41F58011490807
:100300004FEA30000019514132462B4603B0BDE898
:10031000F04F00F05CB90098012240000023D0EBC0
:10032000020263EBE073009821464FEAE074B8EBF9
:10033000000061EB0401E9E783F000435BE781F033
:10034000004158E72DE9FE4F81EA030404F0004420
:1003500021F0004100944FF0000B23F0004350EADD
:1003600001045ED052EA03045BD0C3F30A54C1F324
:100370000A552C44A4F2F3340194A0FB0254C1F3B7
:10038000130141F48011C3F3130343F4801301FB01
:10039000024400FB034E840A970A44EA815447EA68
:1003A0008357A4FB076802958D0A05FB07854FEA72
:1003B000932C04FB0C542705029D4FEA065847EA8C
:1003C0001637B5EB08056EEB070C870E920E47EA61
:1003D000811742EA8312A7FB0201B6EB0B0164EB23
:1003E00000042B0D43EA0C335E1844EB1C50DA4634
:1003F0005146E7FB0201C5F313044FEA0B3343EA0E
:1004000014534FEA0432019C43EA0603A4F10C049E
:100410000294009CCDE900B400F0E8F803B0BDE818
:10042000F08F00200146F9E72DE9F04D81EA030441
:1004300004F0004B21F0004514464FF0000A23F071
:10044000004150EA050220D054EA01021DD0C5F354
:100450000A570246C5F31303C1F31300C1F30A564A
:1004600040F4801543F48013A7EB0608101BD64612
:1004700008F2FD3873EB050002D308F1010801E032
:1004800092185B41B8F1000F03DA00200146BDE885
:10049000F08D00204FF48011064684460EE0171BB5
:1004A00073EB050705D3121B63EB050306434CEA08
:1004B000010C49084FEA300092185B4150EA0107ED
:1004C000EDD152EA030012D082EA040083EA05016A
:1004D000084305D0101BAB4106D20122002306E0E1
:1004E00000224FF0004302E06FF0010253101AEBBC
:1004F00006004CEB085110EB0A0041EB0B01BDE884
:10050000F04D00F064B8C1F30A52C1F3130140F298
:10051000FF3341F480119A4202DA0020014670470D
:1005200040F233439A42A2F2334202DC5242FFF7D6
:10053000F9BD00F02BB8000030B5041E71F10004C5
:1005400004DB4FF00044404264EB0101141E73F1E0
:10055000000405DB1C464FF00043524263EB0403EA
:10056000994208BF904230BD064C074D06E0E06856
:1005700040F0010394E8070098471034AC42F6D3EA
:10058000FFF7B8FD3043000850430008202A04DB81
:10059000203A00FA02F1002070479140C2F1200396
:1005A00020FA03F3194390407047202A06DBCB174B
:1005B000203A41FA02F043EAE07306E041FA02F31E
:1005C000D040C2F12002914008431946704710B54F
:1005D000141E73F1000408DA401C41F10001921866
:1005E0005B411A4301D120F0010010BD2DE9F04D0F
:1005F00092469B4611B1B1FA81F202E0B0FA80F264
:1006000020329046FFF7C2FF04460F4640EA0A0038
:1006100041EA0B0153465A46084313D0114653EAA8
:10062000010019D0C8F140025046FFF77BFD054696
:100630000E46504659464246FFF7A8FF084305D0EC
:10064000012004E020463946BDE8F08D0020054336
:1006500046EAE0762C4337430A986305E40AA0EBA8
:1006600008000022FD0A44EA47540A3002D500205F
:100670000146E9E7010510196941DDE9084500195E
:100680006941BDE8F04DA2E700BFFEE770B5044642
:10069000A188206800F07CFD08B9012000E000205E
:1006A000064600F083FD0546A079B0420CD0E06814
:1006B000281AA168884207D9A671E560012E01D1E8
:1006C000012070BD0220FCE70020FAE7F0B585B0FC
:1006D00004460D4616461F462560A680A7600020EA
:1006E000A071E060214885420DD100BF204880699B
:1006F00040F004001E4988610846806900F004004B
:10070000009000BF21E01B4885420DD100BF184872
:10071000806940F00800164988610846806900F049
:100720000800009000BF10E0134885420DD100BFC3
:100730000F48806940F010000D49886108468069C3
:1007400000F01000009000BF00BF00200190029058
:1007500003900490019602900120039002200490DF
:1007600001A9284600F084FB05B0F0BD0008014057
:1007700000100240000C01400010014008B505487F
:1007800000680090BDF8001008469DF8021040EA8D
:10079000014008BD280000207FB505460C4600201A
:1007A0000090019002900390009401900290032029
:1007B00003906946284600F05BFB7FBD7FB5054688
:1007C0000C460020009001900290039000940120BC
:1007D000019000200290032003906946284600F013
:1007E00047FB7FBD08B5034800880090BDF80010A6
:1007F000084608BD2B0000202DE9FC4780468946AD
:100800001546002400200090019049464046FFF71D
:10081000D5FF00224946404600F0C2FC122000F0FD
:1008200013FB01224946404600F0BAFC142003F0B5
:10083000D3FC49464046FFF7AFFF4946404600F02B
:10084000A7FC002842D104E0012003F0C5FC601C95
:10085000C4B24946404600F09BFC08B9642CF3DB67
:10086000002404E0012003F0B7FC601CC4B2494638
:10087000404600F08DFC012801D1642CF2DB0024FD
:10088000002607E04946404600F052F80DF8060001
:10089000701CC6B2052EF5DB9DF800009DF8011016
:1008A00008449DF8021008449DF803100844C7B29C
:1008B0009DF80400B84208D19DF8000028709DF80A
:1008C000020068700120BDE8FC8700BF0020FAE745
:1008D0002DE9F04105460E460024002704E00120E2
:1008E00003F07AFC601CC4B23146284600F050FC8C
:1008F00008B9642CF3DB0024282003F06DFC31469A
:10090000284600F045FC012800D1012704E0012021
:1009100003F062FC601CC4B23146284600F038FC8B
:10092000012801D1642CF2DB00243846BDE8F081B7
:100930002DE9F04106460F460024002508E0600638
:10094000040E39463046FFF7C3FF0443681CC5B2A6
:10095000082DF4DB2046BDE8F081000010B5024808
:1009600000F022F910BD00007401002030B590F8AD
:1009700040500124AC40C56B6C60046863604468FF
:10098000102C04D10468A2600468E16003E00468EC
:10099000A1600468E26030BD7047000010B51648E1
:1009A0001649086010208880154816498861002083
:1009B000C86104200862084602F096F903F0FEFBC5
:1009C00008210F4801F0F7FF02F0B4FC32234FF486
:1009D00080720D490D48FFF779FE32234FF4007203
:1009E00009490B48FFF772FE3223102206490948D5
:1009F000FFF76CFE10BD0000000801401C00002045
:100A00009C000020D0050020000C0140F4050020CF
:100A1000040600201406002072B600BFFEE70000A6
:100A200010B5044634B1012C0AD0022C0ED0032C90
:100A300018D111E0002211460F4802F060F912E0CF
:100A4000192200210C4802F05AF90CE03222002150
:100A5000094802F054F906E04B220021064802F052
:100A60004EF900E000BF00BF00200449087000F00C
:100A70009DFB0349086010BDD00500202D0000201B
:100A80003000002010B50446022C03D1034801F0C9
:100A90008AFF02E0014801F07EFF10BD1C0000202B
:100AA0000146002291F82100022808D00420886322
:100AB00000BF002081F8200000BF012070470868B7
:100AC000006820F00E000B6818600868006820F0CD
:100AD00001000B68186091F8403001209840CB6B02
:100AE0005860012081F8210000BF002081F820001B
:100AF00000BF1046E2E7000070B50446002594F8F8
:100B00002100022803D00420A063012548E02068CA
:100B1000006820F00E00216808602068006820F05E
:100B20000100216808601F492068884201D1012026
:100B300026E01C4914312068884201D110201FE0B2
:100B4000184928312068884201D1801518E01549DC
:100B50003C312068884201D1801411E011495031A4
:100B60002068884202D14FF4803009E00D49643199
:100B70002068884202D14FF4801001E04FF080706D
:100B8000084908394860012084F8210000BF00208E
:100B900084F8200000BF606B10B12046616B88476D
:100BA000284670BD0800024070B50446E06B056839
:100BB0002068066894F840100420884028400028E7
:100BC00046D006F00400002842D02068006800F0FB
:100BD000200028B92068006820F00400216808601F
:100BE00057492068884201D1042027E05449143134
:100BF0002068884201D1402020E0514928312068F6
:100C0000884201D1001519E04D493C3120688842E5
:100C100002D14FF4804011E04949503120688842A8
:100C200002D14FF4802009E04549643120688842B0
:100C300002D14FF4800001E04FF080604049083954
:100C40004860E06A00287AD02046E16A884776E06A
:100C500094F84010022088402840A0B306F002001B
:100C600088B32068006800F0200040B92068006860
:100C700020F00A0021680860012084F82100304932
:100C80002068884201D1022028E02D4914312068D3
:100C9000884201D1202021E029492831206888425A
:100CA00001D140151AE026493C312068884202D122
:100CB0004FF4005012E0224950312068884203D19D
:100CC0004FF400300AE017E01D4964312068884283
:100CD00002D14FF4001001E04FF0007018490839BC
:100CE000486000BF002084F8200000BFA06A30B335
:100CF0002046A16A884722E094F8401008208840E6
:100D00002840E0B106F00800C8B12068006820F073
:100D10000E002168086094F8401001208840E16BC3
:100D200048600120A06384F8210000BF002084F8FF
:100D3000200000BF206B10B12046216B884770BD9A
:100D4000080002400146002209B901207047164BF5
:100D50000868C01A1423B0FBF3F08000086412483E
:100D60000838C863022081F821000868026843F649
:100D7000F0708243D1E901031843CB6818430B6933
:100D800018434B6918438B691843CB6918430243D6
:100D90000868026000208863012081F8210000209B
:100DA00081F8200000BFD1E7080002402DE9F041A2
:100DB00004460D4616461F464FF0000800BF94F843
:100DC0002000012802D10220BDE8F081012084F832
:100DD000200000BF94F8210001282CD1022084F8C3
:100DE00021000020A0632068006820F00100216835
:100DF00008603B46324629462046FFF7B7FDE06AC9
:100E000030B12068006840F00E00216808600BE0F7
:100E10002068006820F004002168086020680068ED
:100E200040F00A00216808602068006840F0010076
:100E30002168086006E000BF002084F8200000BFA1
:100E40004FF002084046BFE770B5044600F0AEF927
:100E500006462546681C10B104480078054400BFCA
:100E600000F0A4F9801BA842FAD370BD080000204E
:100E70002DE9F8470346002294466EE14FF0010841
:100E800008FA02F4D1F8008008EA0400A0427DD1FB
:100E9000DFF8DCA2D1F80480A8EB0A09D0453AD0EB
:100EA00014DCB8F1030F50D009DCB8F1000F31D0D9
:100EB000B8F1010F1CD0B8F1020F49D120E0B8F110
:100EC000110F18D0B8F1120F42D11EE0B9F5881FEA
:100ED00025D006DCB9F5803F20D0B9F5801F37D189
:100EE0001AE0B9F5001F18D0B9F5041F30D117E08A
:100EF000D1F80CC02DE0D1F80C8008F1040C28E0EA
:100F0000D1F80C8008F1080C23E0D1F80C8008F12E
:100F10000C0C1EE000BF00BF00BF00BF00BF00BF41
:100F2000D1F80880B8F1000F02D14FF0040C0BE0AB
:100F3000D1F80880B8F1010F03D14FF0080C1C6103
:100F400002E04FF0080C5C6103E04FF0000C00E0A1
:100F500000BF00BFFF2801D8984601E003F1040854
:100F60004646FF2802D84FEA820803E0A2F10808AB
:100F70004FEA88084746D6F800804FF00F0909FA73
:100F800007F928EA09080CFA07F900E088E048EABE
:100F90000908C6F80080D1F8048008F08058B8F13C
:100FA000805F7DD100BFDFF8CC81D8F8188048F091
:100FB0000108DFF8C091C9F81880C846D8F8188031
:100FC00008F00108CDF8008000BF00BF4FEAB93833
:100FD0004FEA920958F829504FEA82784FEA187977
:100FE0004FF00F0808FA09F825EA0805DFF88881AC
:100FF000434502D14FF0000816E0DFF880814345F9
:1010000002D14FF001080FE0DFF87481434502D1AF
:101010004FF0020808E0DFF86C81434502D14FF041
:10102000030801E04FF004084FEA82794FEA19798A
:1010300008FA09F848EA0505DFF84C814FEA9209F9
:1010400048F82950D1F8048008F48018B8F5801FBA
:101050000AD1DFF83881D8F8008048EA0008DFF8C4
:101060002C91C9F8008009E0DFF82081D8F80080D1
:1010700028EA0008DFF81491C9F80080D1F804804C
:1010800008F40018B8F5001F10D1DFF8008108F14E
:101090000408D8F8008048EA0008DFF8F09000E083
:1010A0005AE009F10409C9F800800DE0DFF8DC809E
:1010B00008F10408D8F8008028EA0008DFF8CC908E
:1010C00009F10409C9F80080D1F8048008F4003857
:1010D000B8F5003F0ED1DFF8B480A8F10408D8F8C5
:1010E000008048EA0008DFF8A490A9F10409C9F8D3
:1010F00000800DE0DFF89480A8F10408D8F80080A3
:1011000028EA0008DFF88490A9F10409C9F80080F2
:10111000D1F8048008F48038B8F5803F0ED1DFF8AC
:101120006C80A8F10808D8F8008048EA0008DFF8C9
:101130005C90A9F10809C9F800800DE0DFF84C8047
:10114000A8F10808D8F8008028EA0008DFF83C90E9
:10115000A9F10809C9F80080521CD1F8008028FACA
:1011600002F8B8F1000F7FF489AEBDE8F8870000FF
:10117000000011100010024000080140000C014066
:101180000010014000140140080001400804014023
:10119000024693680B400BB1012000E0002070472D
:1011A0000AB1016101E00B04036170470148006866
:1011B00070470000000000200348006803490978D8
:1011C0000844014908607047000000200800002022
:1011D00010B50848006840F0100006490860032078
:1011E00000F0A8F80F2000F007F800F02BF800201E
:1011F00010BD00000020024070B504460E48007883
:101200004FF47A71B1FBF0F00C490968B1FBF0F5CD
:10121000284600F0F9FB08B1012070BD102C07D260
:1012200000222146501E00F047F80548046001E006
:101230000120F2E70020F0E7080000200C00002069
:101240000400002008B500BF1148806940F001008B
:101250000F4988610846806900F00100009000BFD6
:1012600000BF00BF0846C06940F08050C861084612
:10127000C06900F08050009000BF00BF00BF05496A
:10128000486820F0E06040F00070486000BF08BD92
:10129000001002400000014001460846002809DB1A
:1012A00000F01F0301229A4043099B0003F1E02351
:1012B000C3F8002100BF70472DE9F05F80460D465E
:1012C0001646002702F004FB074639462A463346F5
:1012D00001F00700C0F1070ABAF1040F02D94FF07C
:1012E000040A01E0C0F1070AD14600F1040ABAF18C
:1012F000070F02D24FF0000A01E0A0F1030AD44622
:101300004FF0010A0AFA09FAAAF1010A0AEA020AE6
:101310000AFA0CFA4FF0010B0BFA0CFBABF1010BC4
:101320000BEA030B4AEA0B042146404602F0D8FAC6
:10133000BDE8F09F00BF00F00702064B19684FF6AA
:10134000FF031940044B0B4343EA0221014B196090
:1013500000BF70470CED00E00000FA0570B50446D0
:101360000D460CB9012070BD5A48006800F0070016
:10137000A8420ED25748006820F00700284355497C
:1013800008600846006800F00700A84201D001206C
:10139000E9E7207800F0020002281DD1207800F053
:1013A0000400042805D14C48406840F4E0604A49F4
:1013B0004860207800F00800082805D146484068B9
:1013C00040F46050444948604348406820F0F000D1
:1013D000A168084340494860207800F0010078B3D4
:1013E0006068012806D13C48006800F4003090B9DC
:1013F0000120B8E76068022806D13748006800F08D
:10140000007040B90120AEE73348006800F00200E8
:1014100008B90120A7E73048406820F00300616860
:1014200008432D494860FFF7C1FE064609E0FFF773
:10143000BDFE801B41F28831884202D9032092E729
:1014400007E02548406800F00C006168B0EB810FB0
:10145000EDD12048006800F00700A8420ED91D48D1
:10146000006820F0070028431A4908600846006811
:1014700000F00700A84201D0012074E7207800F0B6
:101480000400042807D11448406820F4E060E168B3
:10149000084311494860207800F00800082808D166
:1014A0000D48406820F46050216940EAC1000A49B3
:1014B000486000F03FF808494968C1F30311074A42
:1014C000515CC8400649086006480068FFF794FE72
:1014D000002048E7002002400010024018430008A6
:1014E0000C00002004000020014800687047000044
:1014F0000C00002000B5FFF7F7FF04494968C1F36D
:101500000221034A515CC84000BD000000100240A7
:101510002843000800B5FFF7E7FF04494968C1F315
:10152000C221034A515CC84000BD000000100240C7
:101530002843000870B50021002200240023002069
:10154000134D696801F00C05F5B1042D02D0082D8A
:1015500019D101E00F4819E00F4DC1F38346AB5D8F
:1015600001F4803555B10A4D6D68C5F340450B4E09
:10157000725D084D5D43B5FBF2F402E0084D03FBDC
:1015800005F4204602E000BF024800BF00BF70BD66
:101590000010024000127A000643000816430008BB
:1015A00000093D00F8B504460CB90120F8BD2078CB
:1015B00000F00100002878D0F848406800F00C00E6
:1015C00004280CD0F548406800F00C00082811D120
:1015D000F248406800F48030B0F5803F0AD1EF480F
:1015E000006800F4003000285FD0606800285CD1FB
:1015F0000120DBE700BF6068B0F5803F06D1E74817
:10160000006840F48030E549086028E0606858B917
:10161000E248006820F48030E0490860084600682D
:1016200020F4802008601AE06068B0F5A02F0BD18C
:10163000DA48006840F48020D8490860084600680D
:1016400040F4803008600AE0D448006820F480301C
:10165000D24908600846006820F48020086000BF76
:10166000606888B1FFF7A2FD054606E0FFF79EFD22
:10167000401B642801D9032098E7C848006800F49B
:1016800000300028F2D010E0FFF790FD054606E09C
:10169000FFF78CFD401B642801D9032086E7BF4873
:1016A000006800F400300028F2D1207800F0020039
:1016B000022857D1B948406800F00C0050B1B74833
:1016C000406800F00C00082818D1B448406800F4C5
:1016D000803098B9B148006800F0020020B120695C
:1016E000012801D0012061E7AC48006820F0F80033
:1016F000616940EAC100A949086033E02069E8B1A6
:101700000120A7490860FFF751FD054606E0FFF7F5
:101710004DFD401B022801D9032047E79F48006880
:1017200000F002000028F2D09C48006820F0F80089
:10173000616940EAC1009949086013E000209849B6
:101740000860FFF733FD054606E0FFF72FFD401B5D
:10175000022801D9032029E79048006800F0020020
:101760000028F2D1207800F0080008282DD1A069C7
:10177000B8B101208B490860FFF718FD054606E067
:10178000FFF714FD401B022801D903200EE7834810
:10179000406A00F002000028F2D0012001F0F2FAC5
:1017A00013E000207F490860FFF700FD054606E0D2
:1017B000FFF7FCFC401B022801D90320F6E677481E
:1017C000406A00F002000028F2D1207800F0040006
:1017D000042873D100277148C06900F0805070B9A7
:1017E00000BF6E48C06940F080506C49C86108462F
:1017F000C06900F08050009000BF00BF01276A4818
:10180000006800F48070B0B96748006840F48070E8
:1018100065490860FFF7CAFC054606E0FFF7C6FC0D
:10182000401B642801D90320C0E65F48006800F42B
:1018300080700028F2D000BFE068012806D1574828
:10184000006A40F001005549086227E0E06858B995
:101850005248006A20F00100504908620846006AB8
:1018600020F00400086219E0E06805280BD14B481D
:10187000006A40F00400494908620846006A40F0E6
:10188000010008620AE04548006A20F0010043496F
:1018900008620846006A20F00400086200BFE068A1
:1018A000A0B1FFF783FC054609E0FFF77FFC401B72
:1018B00041F28831884202D9032077E622E0374896
:1018C000006A00F002000028EFD012E0FFF76EFC83
:1018D000054608E0FFF76AFC401B41F28831884268
:1018E00001D9032062E62D48006A00F002000028BA
:1018F000F0D1012F05D12948C06920F08050274937
:10190000C86100BFE069C8B32448406800F00C001B
:10191000082860D0E069022848D1002020490866E4
:10192000FFF744FC054606E0FFF740FC401B022899
:1019300001D903203AE61948006800F00070002839
:10194000F2D1206AB0F5803F07D11448406820F4F6
:101950000030A168084311494860D4E908010843F0
:101960000E49496821F4741108430C49486001206C
:101970000B490866FFF71AFC054607E03DE0FFF754
:1019800015FC401B022801D903200FE6034800681C
:1019900000F000700028F2D02FE00000001002409C
:1019A000000042428004424200700040002014497E
:1019B0000866FFF7FBFB054606E0FFF7F7FB401B59
:1019C000022801D90320F1E50E48006800F00070FC
:1019D0000028F2D111E0E069012800D1E6E50948CC
:1019E000466806F48031206A814204D106F4701101
:1019F000606A814201D00120D8E50020D6E50000D0
:101A0000000042420010024070B504462546681EA0
:101A1000B0F1807F01D301200FE0681E4FF0E0217C
:101A200048610F214FF0FF3001F05AFF00204FF0C6
:101A3000E021886107200861002070BD7047704771
:101A400030B502460B4600BF92F83C00012801D198
:101A5000022030BD012082F83C0000BF022082F845
:101A60003D00106844681068816824F070041868AC
:101A7000044310684460104D1068A8420BD01068F1
:101A8000B0F1804F07D00D4D1068A84203D00C4D27
:101A90001068A84205D121F0800158680143106800
:101AA0008160012082F83D0000BF002082F83C00E8
:101AB00000BF00BFCDE70000002C01400004004043
:101AC0000008004010B504460CB9012010BD94F880
:101AD0003D0028B9002084F83C00204600F026F89C
:101AE000022084F83D00211D206801F0A1F90120A9
:101AF00084F8460000BF84F83E0001213F200155D4
:101B0000402001554120015500BF00BF012084F84D
:101B1000420043200155442001554520015500BF96
:101B2000012084F83D000020D0E7000038B50446CD
:101B300016492068884216D100BF1548806940F4D4
:101B40000060134988610846806900F400600090D5
:101B500000BF00BF002211461920FFF7ADFB19207E
:101B6000FFF79AFB11E02068B0F1804F0DD100BF64
:101B70000748C06940F001000549C8610846C069CE
:101B800000F00100009000BF00BF38BD002C0140F4
:101B900000100240014691F83D00012801D00120CB
:101BA0007047022081F83D000868C06840F00100DD
:101BB0000B68D860124B086898420BD00868B0F1E7
:101BC000804F07D00F4B0868984203D00E4B08682F
:101BD00098420CD10868806800F00702062A0CD0F1
:101BE0000868006840F001000B68186005E00868AC
:101BF000006840F001000B6818600020D0E700008A
:101C0000002C014000040040000800402DE9F04194
:101C100004460D46002700BF94F83C00012802D17D
:101C20000220BDE8F081012084F83C0000BF0220C2
:101C300084F83D002068866826F0770626F47F4603
:101C4000206886602868502833D00CDC202850D0CB
:101C500004DC00284BD0102851D149E0302849D06D
:101C600040284CD139E060282DD0702807D0B0F53D
:101C7000805F03D0B0F5005F41D10DE041E0D5E9D0
:101C800002136A68206801F026F92068866846F029
:101C900077062068866034E0D5E902136A68206818
:101CA00001F019F92068806840F48040216888605C
:101CB00027E0EA686968206801F0DEF950212068B1
:101CC00001F014F91DE0EA686968206801F0E7F99D
:101CD0006021206801F00AF913E0EA686968206869
:101CE00001F0CAF94021206801F000F909E000BFC5
:101CF00000BF00BF2968206801F0F8F801E0012763
:101D000000BF00BF012084F83D0000BF002084F820
:101D10003C0000BF384684E7704770B50446206831
:101D2000C5682068066906F00200022819D105F08E
:101D30000200022815D1401F216808610120207788
:101D40002068806900F0030018B12046FFF7E4FF27
:101D500005E0204600F0E8F8204600F09CF900205D
:101D6000207706F00400042819D105F004000428A7
:101D700015D1C0432168086102202077206880695E
:101D800000F4407018B12046FFF7C6FF05E020467A
:101D900000F0CAF8204600F07EF90020207706F017
:101DA0000800082819D105F00800082815D1C043FB
:101DB00021680861042020772068C06900F00300D2
:101DC00018B12046FFF7A8FF05E0204600F0ACF868
:101DD000204600F060F90020207706F0100010285F
:101DE00019D105F01000102815D1C04321680861F1
:101DF000082020772068C06900F4407018B12046A0
:101E0000FFF78AFF05E0204600F08EF8204600F03C
:101E100042F90020207706F0010048B105F00100EA
:101E200030B16FF0010021680861204600F09EF992
:101E300006F08000802809D105F08000802805D1B7
:101E4000C043216808612046FFF7F8FD06F0400016
:101E5000402809D105F04000402805D1C043216841
:101E60000861204600F0FAF906F02000202809D188
:101E700005F02000202805D1C043216808612046D4
:101E8000FFF7DDFD70BD000010B586B004460020F0
:101E900002900390049005902068B0F1804F38D1F3
:101EA00000BF1D48806940F004001B498861084656
:101EB000806900F00400019000BF00BF00BF084629
:101EC000806940F0080088610846806900F00800D9
:101ED000019000BF00BF03200290022003900590F4
:101EE00002A90E48FEF7C4FF4FF480600290022062
:101EF0000390059002A90A48FEF7BAFF00BF0949FE
:101F0000486820F4407040F0E06040F400704860A1
:101F100000BF06B010BD00000010024000080140E4
:101F2000000C01400000014070472DE9F0410446DB
:101F30000D461646002700BF94F83C00012802D148
:101F40000220BDE8F081012084F83C0000BF36B1DA
:101F5000042E1BD0082E31D00C2E5ED145E0294630
:101F6000206800F0CDFF2068806940F008002168FB
:101F700088612068806920F00400216888612068F9
:101F80008069296908432168886148E029462068FA
:101F900000F0E6FF2068806940F4006021688861F5
:101FA0002068806920F480602168886120688069E9
:101FB000296940EA01202168886130E029462068CB
:101FC00001F002F82068C06940F008002168C8618B
:101FD0002068C06920F004002168C8612068C069D9
:101FE000296908432168C86119E02946206801F081
:101FF0001FF82068C06940F400602168C86120684B
:10200000C06920F480602168C8612068C0692969BE
:1020100040EA01202168C86101E0012700BF00BF3C
:1020200000BF002084F83C0000BF384689E710B5A7
:1020300004460CB9012010BD94F83D0028B90020D9
:1020400084F83C00204600F025F8022084F83D008A
:10205000211D206800F0ECFE012084F8460000BF3E
:1020600084F83E0001213F200155402001554120C8
:10207000015500BF00BF012084F8420043200155F4
:10208000442001554520015500BF012084F83D0042
:102090000020D0E77047704770B504460D4615B96B
:1020A00094F83E000BE0042D02D13F20005D06E0D5
:1020B000082D02D14020005D01E04120005D012893
:1020C00001D0012070BD1DB9022084F83E000EE051
:1020D000042D03D102213F20015508E0082D03D132
:1020E00002214020015502E0022141200155012238
:1020F0002946206800F0DEFE19492068884201D197
:10210000012000E0002028B12068406C40F400402D
:10211000216848641249206888420BD02068B0F1D9
:10212000804F07D00F492068884203D00E492068AD
:1021300088420CD12068806800F00706062E0CD07B
:102140002068006840F001002168086005E0206810
:10215000006840F00100216808600020B2E700003C
:10216000002C0140000400400008004038B504463F
:10217000204884423CD120480088401C1E490880E9
:1021800008460088B0F57A7F2BD11C480068401CB7
:102190001A490860002018490880FEF7EFFA0090FD
:1021A0001748BDF8001001809DF802108170FEF7FD
:1021B00019FB00901348BDF800100180417812A06F
:1021C00001F076FB0E48017815A001F071FB0C4878
:1021D000417818A001F06CFB094881781AA001F041
:1021E00067FB06480068022802D100200349086006
:1021F00038BD0000540000204E00002044000020A4
:10220000480000204B0000204C6F672074656D7003
:10221000657261747572653A25640D0A00000000EC
:102220004C6F6720427574746F6E313A25640D0AE5
:10223000000000004C6F6720427574746F6E323A74
:1022400025640D0A000000004C6F6720427574740D
:102250006F6E333A25640D0A000000007047F8B530
:1022600004460D46164694F8420020282DD105B1AB
:102270000EB90120F8BD01202063002060633246C2
:102280002946204601F0B8F90746206B012819D1EC
:1022900000BF00200090206800680090206840681F
:1022A000009000BF00BF00BF00BF21680C3151E8A3
:1022B000001F41F0100021680C3141E80002002AA3
:1022C000F3D100E001273846D4E70220D2E700002E
:1022D00070B505460E4614492868884223D1134834
:1022E00001F0D6FF88B900240CE0104801F0D0FFBF
:1022F00028B90F48015D0D4801F0EDFF00E003E053
:10230000601C84B2B442F0DB00BF4FF48071084817
:10231000FDF71FFF4FF4807205492846FFF79FFF26
:1023200001200449087070BD00440040B80200203C
:10233000B801002018000020704700002DE9F84F78
:102340000446206805682068C668206847694FF021
:102350000009CA4605F00F09B9F1000F0AD105F0CE
:10236000200038B106F0200020B1204601F047F8E7
:10237000BDE8F88FB9F1000F7BD007F0010018B964
:1023800006F49070002874D005F0010030B106F416
:10239000807018B1606C40F00100606405F00400CA
:1023A00030B107F0010018B1606C40F002006064C9
:1023B00005F0020030B107F0010018B1606C40F088
:1023C0000400606405F0080048B106F0200010B970
:1023D00007F0010018B1606C40F008006064606CA8
:1023E000002845D005F0200028B106F0200010B1EB
:1023F000204601F004F820684069C0F3801A606C40
:1024000000F0080010B9BAF1000F2CD0204600F0FF
:102410009DFF2068406900F0400000B300BF00BF8E
:102420002168143151E8001F21F040002168143167
:1024300041E80002002AF3D100BFE06B50B17748B9
:10244000E16B4863E06BFEF757FB88B1E06B416BD3
:1024500088470DE02046FFF76FFF09E009E02046BE
:10246000FFF76AFF04E02046FFF766FF0020606484
:102470007EE7206B012877D105F01000002873D08B
:1024800006F010000028FAD000BF0020009020685D
:102490000068009020684068009000BF00BF20687E
:1024A000406900F0400000285FD0E06B00684068A1
:1024B0001FFA80F8B8F1000F55D0A08D404552DDCD
:1024C000A4F82E80E06B8069202843D000BF00BFB5
:1024D00021680C3151E8001F21F4807021680C3113
:1024E00041E80002002AF3D100BF00BF00BF21680D
:1024F000143151E8001F21F001002168143141E836
:102500000002002AF3D100BF00BF00BF21681431D0
:1025100051E8001F21F040002168143141E8000219
:10252000002AF3D100BF202084F84200002020635D
:1025300000BF00BF21680C3151E8001F21F01000DE
:1025400021680C3141E80002002AF3D100BFE06BA2
:10255000FEF7A6FA02206063A08DE28D801A81B298
:102560002046FFF7B5FE03E742E0A08DE18D401A5B
:102570001FFA80F8E08DD0B3B8F1000F37D000BF5C
:1025800000BF21680C3151E8001F21F490702168D0
:102590000C3141E80002002AF3D100BF00BF00BFA8
:1025A0002168143151E8001F21F001002168143125
:1025B00041E80002002AF3D100BF202084F8420045
:1025C0000020206300BF00BF21680C3151E8001FCC
:1025D00021F0100021680C3141E80002002AF3D1FB
:1025E00000BF0220606341462046FFF771FEBFE650
:1025F00005F0800030B106F0800018B1204601F0EF
:102600005FF8B5E605F0400030B106F0400018B1C3
:10261000204600F0D1FEABE600BFA9E691310008EC
:1026200010B504460CB9012010BDA06900B100E04E
:1026300000BF94F8410028B9002084F840002046EB
:1026400000F02AF8242084F841002068C06820F4B3
:1026500000502168C860204600F050FF20680069E3
:1026600020F49040216808612068406920F02A0029
:10267000216848612068C06840F400502168C86043
:1026800000206064202084F8410084F8420000208B
:10269000606300BFC8E7000010B586B004460020A4
:1026A000029003900490059048492068884237D1F1
:1026B00000BF4748806940F480404549886108462A
:1026C000806900F48040019000BF00BF00BF084651
:1026D000806940F0040088610846806900F00400C9
:1026E000019000BF00BF4815029002200390032014
:1026F000059002A93748FEF7BBFB4FF480600290BB
:1027000000200390049002A93248FEF7B1FB00229A
:1027100011462520FEF7D0FD2520FEF7BDFD52E035
:102720002D49206888424ED100BF2948C06940F435
:1027300000302749C8610846C06900F400300190A4
:1027400000BF00BF00BF0846806940F004008861F8
:102750000846806900F00400019000BF00BF04201B
:102760000290022003900320059002A91948FEF769
:102770007FFB0820029000200390049002A91548D6
:10278000FEF776FB154816490860002048600021D6
:10279000134881608021C160002101614161816134
:1027A000C161FEF7CFFA08B1FEF736F900BF0C4859
:1027B000E063446200BF002211462620FEF77CFD44
:1027C0002620FEF769FD06B010BD0000003801406C
:1027D0000010024000080140004400406C0002402C
:1027E00074010020704770472DE9F84F04460E46EB
:1027F000174699464FF0000A94F84100202850D11E
:1028000006B117B90120BDE8F88F002060642120CF
:1028100084F84100FEF7CAFC8246A784E784A068DA
:10282000B0F5805F04D1206910B90025B04602E000
:1028300035464FF000081EE0534600228021204616
:10284000CDF8009000F06CFF20B1202084F841000A
:102850000320D8E745B9B8F80000C0F308002168A4
:10286000486008F1020803E02878216848606D1C80
:10287000E08C401EE084E08C0028DDD1534600222D
:1028800040212046CDF8009000F04AFF20B12020E2
:1028900084F841000320B6E7202084F8410000209E
:1028A000B1E70220AFE70000F7B50446154694F8FB
:1028B0004100202836D1019800B10DB90120FEBD9C
:1028C00001982062A584E58400206064212084F8BA
:1028D00041001548A16B88621448A16BC862144876
:1028E000A16B08630020A16B486301AE23681A1D29
:1028F00031682B46A06BFEF759FA6FF04000216853
:10290000086000BF00BF2168143151E8001F41F08A
:1029100080002168143141E80002002AF3D100BF91
:102920000020CCE70220CAE7CD320008253300089A
:10293000A531000838B504460B492068884211D1FA
:102940000A4801F09DFC48B96946084801F0AAFC14
:10295000012269460648FFF7A7FF02E0002005496B
:10296000087000BF38BD000000440040C4030020D0
:102970002C01002010000020704700BFFEE770B55A
:1029800004460D46FEF712FC001BA84201D90120A7
:1029900070BD0020FCE710B50446A1880022206825
:1029A000FEF7FEFB10BD10B50446A1880122206889
:1029B000FEF7F6FB10BD70B504460D4629462046CD
:1029C000FFF76AFB70BD30B50B46642A00DD642258
:1029D0000468E46A54436425B4FBF5F113B9046850
:1029E00061630BE0042B02D10468A16306E0082BAD
:1029F00002D10468E16301E00468216430BD000095
:102A000010B5044634B1012C0AD0022C0ED0032C90
:102A100018D111E0002208210C48FFF7D4FF12E082
:102A20000A2208210948FFF7CEFF0CE032220821D4
:102A30000648FFF7C8FF06E0642208210348FFF7B5
:102A4000C2FF00E000BF00BF10BD00009C000020DE
:102A500008B500BF0A48406940F0010008494861D4
:102A60000846406900F00100009000BF00BF00224E
:102A700011461020FEF720FC1020FEF70DFC08BDCB
:102A80000010024000B585B0002001900290039034
:102A9000049000BF2848806940F0100026498861F2
:102AA0000846806900F01000009000BF00BF00BF22
:102AB0000846806940F0200088610846806900F07F
:102AC0002000009000BF00BF00BF0846806940F0B2
:102AD000040088610846806900F00400009000BF8F
:102AE00000BF00BF0846806940F0080088610846C2
:102AF000806900F00800009000BF00BF0022302174
:102B00000E48FEF74DFB302001900120029000207E
:102B100003900220049001A90848FEF7A9F94FF498
:102B200044700190002002900120039001A9044804
:102B3000FEF79EF905B000BD0010024000080140FC
:102B4000000C014000B587B0002003900490059070
:102B5000069001900290154815490860472048608A
:102B600000211348816040F2E731C160002101611A
:102B700041618161FEF7A6FF08B1FDF74DFF4FF4FB
:102B80008050039003A90A48FFF740F808B1FDF709
:102B900043FF00200190029001A90548FEF750FF75
:102BA00008B1FDF739FF07B000BD0000002C01405F
:102BB0005400002000B58DB0002009900A900B90C1
:102BC0000C90079008901C216846FDF7C2FA4FF060
:102BD0008040274908600020486000212448816027
:102BE0004FF6FF71C160002101618161FEF76AFF4C
:102BF00008B1FDF711FF4FF48050099009A91C4856
:102C0000FFF704F808B1FDF707FF1948FFF70FFABF
:102C100008B1FDF701FF00200790089007A91448AC
:102C2000FEF70EFF08B1FDF7F7FE602000900020D0
:102C3000019002900490002269460D48FFF775F953
:102C400008B1FDF7E9FE042269460948FFF76DF96E
:102C500008B1FDF7E1FE082269460548FFF765F96E
:102C600008B1FDF7D9FE0248FFF70EF90DB000BD1F
:102C70009C00002010B50B480B4908604FF4E13070
:102C80004860002108488160C16001610C214161F8
:102C900000218161C161FFF7C3FC08B1FDF7BCFEF3
:102CA00010BD000000380140E400002010B50B48C2
:102CB0000B4908604FF4E13048600021084881600A
:102CC000C16001610C21416100218161C161FFF797
:102CD000A7FC08B1FDF7A0FE10BD000000440040B5
:102CE0002C01002000BFFEE710B50446D4E9060120
:102CF00000F022F8216AA06900F01EF810BD70B53E
:102D000004460D46164655B93246D4E9060100F090
:102D10001BF80022216AA06900F016F809E00022E1
:102D2000D4E9060100F010F83246216AA06900F0EB
:102D30000BF870BD00BFFEE770B504460D4629468E
:102D40002046FFF7A9F970BD30B50B46642A00DDB7
:102D500064220468E46A54436425B4FBF5F113B9B2
:102D6000046861630BE0042B02D10468A16306E0F0
:102D7000082B02D10468E16301E00468216430BDDE
:102D80007047000008B508490968C9084FF47A720D
:102D9000B1FBF2F14143009100BF00BF00994A1E10
:102DA00000920029F9D108BD0C000020704710B531
:102DB000FEF702FA10BD00B58FB0282105A8FDF777
:102DC000C8F914216846FDF7C4F9012005900004F4
:102DD0000690002007900120099002200C90C1036A
:102DE0000D914FF4E0110E9105A8FEF7DBFB08B141
:102DF000FDF712FE0F2000900220019000200290AB
:102E00004FF4806003900020049002216846FEF792
:102E1000A5FA08B1FDF700FE0FB000BD7047000035
:102E200010B50248FEF779FF10BD000054000020E5
:102E300010B502681C4B984208D0B0F1804F05D005
:102E40001A4B984202D01A4B984203D122F07002DA
:102E50004B681A43144B984208D0B0F1804F05D00C
:102E6000124B984202D0124B984203D122F4407286
:102E7000CB681A4322F080034C6943EA04020260E3
:102E80008B68C3620B688362074B984201D10B6960
:102E9000036301234361036903F001031BB1036969
:102EA00023F00103036110BD002C01400004004029
:102EB0000008004030B501F01F05012404FA05F3B5
:102EC000046A9C430462046A01F01F0502FA05F5D6
:102ED0002C43046230BD30B50C46816821F47F413B
:102EE00042EA032525432943816030BD0A468168B3
:102EF00021F0700142F00703194381607047000020
:102F000030B5026A056A25F00105056243688469E7
:102F100024F0700424F003040D682C4322F0020214
:102F20008D682A430D4DA84206D100BF22F0080249
:102F3000CD682A4322F00402084DA84207D123F4A9
:102F4000807323F400734D692B438D692B434360D9
:102F500084614D684563026230BD0000002C014071
:102F600030B5026A056A25F0100505624368846978
:102F700024F4E04424F440740D6844EA052422F06B
:102F800020028D6842EA05120E4DA84207D100BF0B
:102F900022F08002CD6842EA051222F04002094D7B
:102FA000A84209D123F4806323F400634D6943EA06
:102FB00085038D6943EA8503436084614D688563B9
:102FC000026230BD002C014030B5026A056A25F46A
:102FD000807505624368C46924F0700424F003041A
:102FE0000D682C4322F400728D6842EA05220F4DD1
:102FF000A84207D100BF22F40062CD6842EA052250
:1030000022F48062094DA84209D123F4805323F4AD
:1030100000534D6943EA05138D6943EA0513436084
:10302000C4614D68C563026230BD0000002C0140E0
:1030300030B5036A056A25F4805505624468C269A3
:1030400022F4E04222F440720D6842EA052223F4A1
:1030500000538D6843EA0533064DA84204D124F499
:1030600080444D6944EA85144460C2614D6805643A
:10307000036230BD002C014030B50B461446026A95
:10308000056A25F001050562816921F0F00141EA38
:10309000041122F00A021A438161026230BD30B588
:1030A0000B461446026A056A25F01005056281691F
:1030B00021F4704141EA043122F0A00242EA0312F5
:1030C0008161026230BD000010B5274A20212748E7
:1030D000FDF792FB90B1244840781A280EDD244871
:1030E000007858B1192200212248FFF708FEFEF7A8
:1030F0005DF82149086000201D4908701F480078CC
:1031000050B91F491F480068FFF739FC20B1012062
:103110001A4908701649087018480078022808D122
:1031200019491A480068FFF72AFC10B10120134919
:10313000087012480078012814D111490E4800681F
:10314000FFF71DFC70B10A48007858B9FEF72EF859
:103150000E490860002211460648FFF7D0FD022004
:103160000649087010BD00002B0000200008014037
:103170003C000020D0050020340000202D0000205D
:10318000C0D4010030000020009749013800002021
:1031900070B505466C6A0020E085E0842046FFF7A4
:1031A000CBF870BD70B506460025746A206840698A
:1031B000C0F3C01594F84100212805D125B10020A5
:1031C000E084204600F008F920684069C0F38015CB
:1031D00094F84200222805D125B10020E085204640
:1031E00000F0B4F8606C40F0100060642046FFF717
:1031F000A3F870BD70B505466C6A2868006800F0D9
:103200002000002842D1E08500BF00BF21680C31BA
:1032100051E8001F21F4807021680C3141E8000260
:10322000002AF3D100BF00BF00BF2168143151E86C
:10323000001F21F001002168143141E80002002A3A
:10324000F3D100BF00BF00BF2168143151E8001F57
:1032500021F040002168143141E80002002AF3D136
:1032600000BF202084F84200206B01280ED100BF4F
:1032700000BF21680C3151E8001F21F010002168C7
:103280000C3141E80002002AF3D100BF0020606346
:10329000206B012804D1A18D2046FFF719F802E028
:1032A0002046FFF79FFA70BD70B505466C6A012095
:1032B0006063206B012805D1A08D41082046FFF7EF
:1032C00007F802E02046FFF78EFA70BD70B505469C
:1032D0006C6A2868006800F02000F8B90020E084DB
:1032E00000BF00BF2168143151E8001F21F08000A9
:1032F0002168143141E80002002AF3D100BF00BF69
:1033000000BF21680C3151E8001F41F040002168E6
:103310000C3141E80002002AF3D102E02046FFF719
:1033200009FB70BD70B50446656A2846FFF724FBAB
:1033300070BD000010B54FF4807202490248FEF7DC
:103340008EFF10BDB80100202C01002000BF00BF7F
:1033500002680C3252E8002F22F4907102680C329D
:1033600042E80013002BF3D100BF00BF00BF02688A
:10337000143252E8002F22F001010268143242E8B0
:103380000013002BF3D100BF016B01290ED100BF48
:1033900000BF02680C3252E8002F22F010010268D0
:1033A0000C3242E80013002BF3D100BF202180F83B
:1033B000421000210163704710B504462068C068C0
:1033C00020F040002168C860202084F84100204699
:1033D000FFF7B0FA002010BD00BF00BF02680C323A
:1033E00052E8002F22F0C00102680C3242E80013BC
:1033F000002BF3D100BF202180F841107047F8B5B1
:10340000044694F84200222875D1A068B0F5805F88
:103410000CD1206950B90025A66A20684068C0F325
:1034200008003080A06A801CA06215E0A56A002612
:10343000A068B0F5805F03D0A06828B9206918B9EA
:1034400020684068287004E02068406800F07F0031
:103450002870A06A401CA062E08D401E80B2E0850A
:10346000002846D12068C06820F020002168C8608C
:103470002068C06820F480702168C86020684069B6
:1034800020F0010021684861202084F842000020DB
:103490006063206B012826D10020206300BF00BF9D
:1034A00021680C3151E8001F21F0100021680C3117
:1034B00041E80002002AF3D100BF2068006800F054
:1034C000100010280AD100BF00200090206800687A
:1034D000009020684068009000BF00BFA18D20468A
:1034E000FEF7F6FE02E02046FFF77CF90020F8BD6B
:1034F00001E00020FBE70220F9E7000070B5044678
:103500002168096921F44051E26811432268116180
:103510002269A1681143626941EA02052168C9680C
:1035200041F20C62914329432268D16021684969C4
:1035300021F44071A2691143226851612D4A21682A
:10354000914202D1FDF7E6FF01E0FDF7D3FF00EB6A
:10355000C00101EB001162689200B1FBF2F100EBD7
:10356000C00202EB001263689B00B2FBF3F264231B
:10357000B2FBF3F202EBC20303EB0212A1EB8201F6
:10358000322202EB01116422B1FBF2F101F0F001F1
:1035900000EBC00202EB001263689B00B2FBF3F287
:1035A0006423B2FBF3F201EB021200EBC00101EB6A
:1035B000001163689B00B1FBF3F100EBC00303EB68
:1035C00000136668B600B3FBF6F36426B3FBF6F3AC
:1035D00003EBC30606EB0313A1EB8301322303EBDA
:1035E00001116423B1FBF3F101F00F0111442268D2
:1035F000916070BD0038014077B581B00446154632
:103600000298A062A58500206064222084F8420010
:103610002848E16B88622848E16BC8622748E16B63
:1036200008630020E16B486302AE32682368191D0D
:103630002B46E06BFDF7BAFB00BF0020009020682E
:103640000068009020684068009000BF00BF2069BB
:1036500070B100BF00BF21680C3151E8001F41F478
:10366000807021680C3141E80002002AF3D100BFCC
:1036700000BF00BF2168143151E8001F41F0010074
:103680002168143141E80002002AF3D100BF00BFD5
:1036900000BF2168143151E8001F41F0400021684B
:1036A000143141E80002002AF3D100BF002004B029
:1036B00070BD0000F5310008A9320008A5310008EE
:1036C000014691F84100212828D18868B0F5805F33
:1036D0000BD1086948B90A6A1088C0F308000B6862
:1036E0005860086A801C086205E00B6A581C086272
:1036F00018780B685860C88C401E80B2C88458B9CE
:103700000868C06820F080000B68D8600868C0684E
:1037100040F040000B68D860002070470220FCE7B2
:103720002DE9F84304460D4617469846089E31E0B9
:10373000701C70B3FDF73AFDA0EB0800B04200D852
:1037400016B90320BDE8F8832068C06800F00400C3
:10375000F8B1802D1ED0402D1CD020680068C0F329
:10376000C000B0B100BF0020009020680068009049
:1037700020684068009000BF00BF2046FFF7E6FDCC
:103780000820606400BF002084F8400000BF0120D2
:10379000D8E7FFE7206800682840A84201D101204F
:1037A00000E00020B842C3D00020CBE710B50248AB
:1037B000FEF7C4FD10BD0000E400002010B5024873
:1037C000FEF7BCFD10BD00002C01002000BFFEE78D
:1037D0000020024908704870887070472800002057
:1037E0002DE9F04104461948FCF750FF05461848FA
:1037F000FCF74CFF06461748FCF748FF0746022D2A
:103800000CD12078401C20702078032801DD002096
:10381000207011490878FDF703F914E0022E08D151
:103820006078401C6070607803280CDD00206070B8
:1038300009E0022F07D1A078401CA070A0780228D0
:1038400001DD0020A070BDE8F0810000F40500203B
:1038500004060020140600202800002010B5FDF703
:103860009DF800F01DF8FFF7B3FF00221146024853
:10387000FFF745FA10BD0000D005002010B507483D
:10388000FFF7AEFFFFF720FC04494878FFF7B8F8D0
:1038900002498878FDF7F6F810BD000028000020E6
:1038A00010B50248FEF776F910BD00005400002064
:1038B0000FB4054B10B503A9044A029800F0E6F8CE
:1038C00010BC5DF814FB00002142000850000020ED
:1038D00002480068C0F30220704700000CED00E0D1
:1038E00010B5002804DB0A07130E054A135406E03E
:1038F0000A07140E034A00F00F031B1FD45410BD17
:1039000000E400E018ED00E002E008C8121F08C162
:10391000002AFAD170477047002001E001C1121F50
:10392000002AFBD1704700002DE9FF5FDDE902208E
:10393000010DDDF838B0024318D044F61050A1F262
:10394000FF3141430D140F98012820D0A5EB0B0047
:10395000401C5FEA000A4FF00004474EDFF81C915C
:10396000A046504616D5CAF1000728E00F9801245A
:1039700043A2012808D0002100980F9BC0E9002134
:10398000C0E90243BDE8FF9F6FEA0B01F4E7CBF10A
:103990000000DEE7074612E0F80707D0224633466C
:1039A00040464946FCF7CEFC8046894622463346CF
:1039B00010461946FCF7C6FC04460E467F10002F41
:1039C000EAD1DDE90201BAF1000F42464B4602DAC4
:1039D000FCF7B8FC01E0FCF727FD04460E46002288
:1039E000284BFCF7A9FD03D84FF0FF30014607E054
:1039F0000022254B20463146FCF7FDFBFCF783FDFA
:103A0000102409E0002C0ADB0A220023FCF7C2FB89
:103A1000019B30321A55641E50EA0102F2D1641C37
:103A2000019AC4F1110314440F9A012A03D0012210
:103A300008430DD10AE0084304D000204FF0110BD9
:103A40000F9080E7A3EB0B056D1E0DE05B4504DDD9
:103A50004FF0000205F1010504E003DA4FF0000227
:103A6000A5F10105002AECD000980F99C0E90231B8
:103A7000C0E9004586E70000000024400000F03F58
:103A8000300000000000F0430000E03F2DE9FF4F50
:103A900095B09B468946064600250FE2252877D13A
:103AA00000242746F84A0121059400E0044316F853
:103AB000013F203B01FA03F01042F7D130782A2869
:103AC00011D06FF02F033078A0F13002092A16D8F8
:103AD000059A44F0020402EB820203EB4202104416
:103AE000761C0590EFE759F8042B0592002A03DABB
:103AF000504244F40054059044F00204761C30789F
:103B00002E2816D116F8010F44F004042A280DD0EF
:103B10006FF02F023078A0F13003092B09D807EBA2
:103B2000870302EB4303C718761CF3E759F8047BBD
:103B3000761C30786C280FD006DC4C2817D068280B
:103B40000DD06A2814D104E0742810D07A280FD13F
:103B50000DE044F400140AE044F4801401E044F45D
:103B600040147278824202D104F58014761C761CCF
:103B7000307866280BD013DC582877D009DC002871
:103B800075D04528F6D04628F4D047281AD19DE1B3
:103B900018E0632835D0642879D0652812D195E1E2
:103BA000702873D008DC6728F1D069286FD06E28A0
:103BB0000DD06F2806D1B5E073282CD0752875D0AC
:103BC000782874D05A46179990476D1C75E1C4F354
:103BD0000250022809D003280DD0D9F8001004287B
:103BE0000DD00D6009F1040967E1D9F80010EA175A
:103BF000C1E90052F6E7D9F800100D80F2E70D7028
:103C0000F0E719F8041B8DF8001000208DF8010072
:103C1000EA46012003E059F804AB4FF0FF3061079A
:103C20004FF0000102D40DE008F101018846B942CD
:103C30000FDA8045F8DB1AF808100029F4D108E003
:103C400008F1010188468142FADB1AF808100029C0
:103C5000F6D105985B46A0EB080721463846179A2F
:103C600000F094FA284400EB080507E04DE029E154
:103C70000DE01AF8010B5A4617999047B8F1010860
:103C8000F7D25B4621463846179A13E142E00A22F2
:103C90000092C4F302524FF0000A022A08D059F8E9
:103CA00004CB032A4FEAEC710AD00DE029E02AE0A8
:103CB00009F1070121F00702F2E802C1914609E08B
:103CC0000FFA8CFC4FEAEC71042A03D14FFA8CFCFA
:103CD0004FEAEC71002907DA0A460021DCF1000CFA
:103CE00061EB02012D2202E0220504D52B228DF882
:103CF0000420012203E0E20701D02022F7E79046EA
:103D000059E00A2102E010220DE010214FF0000AD4
:103D100000910BE010224FF0000A44F00404082741
:103D2000009203E008224FF0000A0092C4F302520E
:103D3000022A05D059F804CB0021032A08D009E053
:103D400009F1070121F00702F2E802C1914605E0FE
:103D50001FFA8CFC042A01D10CF0FF0C4FF0000874
:103D6000220728D5702806D0009B83F0100353EA61
:103D70000A0305D00EE040228DF80420012208E05D
:103D80005CEA010206D030228DF804208DF805008F
:103D900002229046009B83F0080353EA0A030AD1EB
:103DA0005CEA010201D1620705D530228DF80420BA
:103DB0004FF001087F1E582804D034A003900EA8AD
:103DC00002900DE036A0F9E753466046009AFCF7F2
:103DD000E1F984460398825C0298401E02900270CA
:103DE0005CEA0100F0D1029806A9081A00F1200A45
:103DF000600702D524F4803400E00127574502DD36
:103E0000A7EB0A0000E0002000EB0A0100900598F3
:103E10004144401A0590E00306D45B462146179AB8
:103E2000059800F0B3F90544002706E001A85A46BA
:103E3000C05D179990476D1C7F1C4745F6DBE0037A
:103E40000CD55B462146179A059800F09FF905446A
:103E500004E030205A46179990476D1C0099481E7F
:103E600000900029F5DC08E0029802995A46007893
:103E7000491C0291179990476D1CBAF10001AAF1F3
:103E8000010AF1DC65E1000009280100303132331C
:103E90003435363738396162636465660000000086
:103EA0003031323334353637383941424344454670
:103EB0000000000000F058F90544761C3078002816
:103EC0007FF4ECAD19B02846BDE8F08F620700D44E
:103ED000062709F1070222F0070CFCE80223E1465D
:103EE00003F000485FEA080C02D00FF2702C0DE0DE
:103EF0005FEA045C02D50FF2682C07E05FEAC47C3D
:103F000002D00FF2602C01E0AFF2700C4FF0FF38DE
:103F100023F00043CDF850C065280CD006DC4528BE
:103F200009D046281DD047283DD13DE0662818D04D
:103F300067287ED138E00021112F01DB112000E03D
:103F4000781CCDE9000106A90EA8FFF7EDFCDDE91C
:103F50000F010E9A03910021009207F1010A0491CA
:103F60004DE04FF000400097CDE9011006A90EA8E2
:103F7000FFF7DAFCDDE90F0203920E9B1199002294
:103F8000DDF80CA00093049211B9791C00EB010A32
:103F9000B7EB0A0004D4C0F1FF3007F1010A049026
:103FA000AAEB0700019044E0012F00DA012700216D
:103FB000112F01DD112000E03846CDE9000106A9EE
:103FC0000EA8FFF7B1FCDDE90F010E9A0391002165
:103FD00004910092BA4621070CD40399514500DAA6
:103FE0008A46BAF1010F05DD009AAAF10101515C80
:103FF000302908D0B84202DA10F1040F06DA0121A4
:10400000CDE9011015E0AAF10101E9E7002805DC7E
:10401000049901440491AAEB000102E0411C5145BE
:1040200000DD8A460499401A401C01904FF0004080
:104030000290200704D40198504501DBCDF804809C
:1040400000208DF84F0002980DF14F07B0F1004F9E
:1040500025D02B200E9002984FF0020800280CDA91
:10406000404202902D200E9007E00A210298FCF7B2
:104070007BF83031029007F8011DB8F10001A8F17A
:104080000108F2DC02980028EFD1791E0E98087022
:10409000307800F0200040F0450007F8020D12A82B
:1040A000C01B00F107081498007800B1012000EB54
:1040B0000A01019801EBE07105984144401A401E45
:1040C0000590E00306D45B462146179A059800F058
:1040D0005DF805441498007818B15A46179990472E
:1040E0006D1CE00324D55B462146179A059800F025
:1040F0004DF805441CE00498002807DBDDE90301C6
:10410000884203DD0098405C179901E01799302040
:104110005A469047049805F10105401C0490019807
:10412000401E019004D12E205A46179990476D1CCD
:10413000BAF10001AAF1010ADDDC05E017F8010B74
:104140005A46179990476D1CB8F10001A8F1010873
:10415000F4DC5B462146179A0598ABE62D0000007B
:104160002B000000200000002DE9F041044600254E
:104170001E461746880404D405E039462020B0477F
:104180006D1C641EF9D52846BDE8F0812DE9F0418B
:10419000044600251E469046C80301D5302700E09E
:1041A0002027880404D505E041463846B0476D1CF9
:1041B000641EF9D52846BDE8F081000010B5FDF772
:1041C00093F90349B0FBF1F00249086010BD00000B
:1041D00040420F002400002070B5034600224FF03B
:1041E000E02675690D4E366803FB06F44FF0E026B5
:1041F000B16910E04FF0E026B06988420BD08842E8
:1042000002D20E1A324402E02E1A0E443244014603
:10421000A24200D300E0EDE700BF70BD2400002003
:1042200013B50C464FF6FF73012269460248FEF7AC
:10423000DBFA00981CBD00002C010020FCF7C8FF31
:10424000FEF7B9FDFEF71EFCFEF702FCFEF77AFC56
:10425000FEF7B0FCFEF70EFDFEF728FDFFF7FEFAB5
:1042600003A0FFF725FB01E0FFF708FBFCE70000D8
:1042700048656C6C6F20576F726C64210A000000F7
:104280000146D1F8080108B9012070470020FCE779
:104290000146D1F80801B0F5807F01D101207047B7
:1042A0000020FCE700B502460B461046FFF7E8FF8A
:1042B00008B1002000BD02F108005168405C187090
:1042C0001079401CC0B25060D2F80801401EC2F8FC
:1042D00008010120EEE700B502460B461046FFF745
:1042E000D7FF08B1002000BD02F108001168435457
:1042F0001078401CC0B21060D2F80801401CC2F80F
:1043000008010120EFE702030405060708090A0B6C
:104310000C0D0E0F10100102000000000000000044
:10432000010203040607080900000000010203045B
:104330005043000800000020540000000839000825
:10434000A443000854000020D409000018390008D4
:1043500000000000100000000100000000127A00C0
:10436000000000000000000000000000000000004D
:10437000000000000000000000000000000100003C
:10438000000000000000000000000000010000002C
:10439000000000000000000000000000000000001D
:0443A0000000000019
:04000005080000ED02
:00000001FF
