:020000040800F2
:10000000200A00200101000881270008DB230008E6
:1000100031270008990100080D3200080000000097
:10002000000000000000000000000000F9270008A8
:100030000904000800000000CD270008FB27000885
:100040001B0100081B0100081B0100081B01000820
:100050001B0100081B0100081B0100081B01000810
:100060001B0100081B0100081B0100081B01000800
:100070001B0100081B0100081B0100081B010008F0
:10008000CD0300081B0100081B0100081B0100082C
:100090001B0100081B0100081B0100081B010008D0
:1000A0001B0100086D2800081B0100081B01000847
:1000B0001B0100081B0100081B0100081B010008B0
:1000C0001B0100081B0100081B0100081B010008A0
:1000D0001B010008ED310008FD3100081B0100087C
:1000E0001B0100081B0100081B010008DFF80CD0F1
:1000F00000F040F8004800473D350008200A002085
:100100000648804706480047FEE7FEE7FEE7FEE7B1
:10011000FEE7FEE7FEE7FEE7FEE7FEE769280008E8
:10012000ED000008D2B201E000F8012B491EFBD21D
:1001300070470022F6E710B513460A4604461946F2
:10014000FFF7F0FF204610BD30B50B4601460020FA
:100150002022012409E021FA02F59D4205D303FA89
:1001600002F5491B04FA02F52844151EA2F101020A
:10017000F1DC30BD064C074D06E0E06840F00103BD
:1001800094E8070098471034AC42F6D3FFF7B2FF6B
:10019000303600085036000800BFFEE770B5044650
:1001A000A188206800F024FD08B9012000E00020AB
:1001B000064600F02BFD0546A079B0420CD0E06861
:1001C000281AA168884207D9A671E560012E01D1DD
:1001D000012070BD0220FCE70020FAE710B50160A5
:1001E0008280836000248471C46010BD08B5054816
:1001F00000680090BDF8001008469DF8021040EA23
:10020000014008BD240000207FB505460C460020B3
:1002100000900190029003900094019002900320BE
:1002200003906946284600F053FB7FBD7FB5054625
:100230000C46002000900190029003900094012051
:10024000019000200290032003906946284600F0A8
:100250003FFB7FBD08B5034800880090BDF8001043
:10026000084608BD270000202DE9FC478046894646
:100270001546002400200090019049464046FFF7B3
:10028000D5FF00224946404600F0BAFC122000F09B
:100290000BFB01224946404600F0B2FC142003F05B
:1002A0001BF949464046FFF7AFFF4946404600F07C
:1002B0009FFC002842D104E0012003F00DF9601CEE
:1002C000C4B24946404600F093FC08B9642CF3DB05
:1002D000002404E0012003F0FFF8601CC4B249468A
:1002E000404600F085FC012801D1642CF2DB00249B
:1002F000002607E04946404600F052F80DF8060097
:10030000701CC6B2052EF5DB9DF800009DF80110AB
:1003100008449DF8021008449DF803100844C7B231
:100320009DF80400B84208D19DF8000028709DF89F
:10033000020068700120BDE8FC8700BF0020FAE7DA
:100340002DE9F04105460E460024002704E0012077
:1003500003F0C2F8601CC4B23146284600F048FCE5
:1003600008B9642CF3DB0024282003F0B5F83146EB
:10037000284600F03DFC012800D1012704E00120BF
:1003800003F0AAF8601CC4B23146284600F030FCE5
:10039000012801D1642CF2DB00243846BDE8F0814D
:1003A0002DE9F04106460F460024002508E06006CE
:1003B000040E39463046FFF7C3FF0443681CC5B23C
:1003C000082DF4DB2046BDE8F081000010B502489E
:1003D00000F01AF910BD00007001002030B590F84F
:1003E00040500124AC40C56B6C6004686360446895
:1003F000102C04D10468A2600468E16003E0046882
:10040000A1600468E26030BD7047000010B5134879
:10041000134988610020C86104200862084602F080
:1004200089F903F04BF808210C4801F0EAFF02F0CB
:10043000A1FC32234FF480720A490B48FFF7CEFE2D
:1004400032234FF4007207490848FFF7C7FE3223F2
:10045000102204490648FFF7C1FE10BD9800002095
:10046000CC050020000C0140F00500200006002013
:100470001006002072B600BFFEE7000010B504466B
:1004800034B1012C0AD0022C0ED0032C18D111E06B
:10049000002211460F4802F058F912E019220021FB
:1004A0000C4802F052F90CE032220021094802F017
:1004B0004CF906E04B220021064802F046F900E024
:1004C00000BF00BF00200449087000F09FFB0349F3
:1004D000086010BDCC050020290000202C00002061
:1004E00010B50446022C04D11021044801F080FF0D
:1004F00003E01021014801F072FF10BD0008014027
:100500000146002291F82100022808D004208863C7
:1005100000BF002081F8200000BF0120704708685C
:10052000006820F00E000B6818600868006820F072
:1005300001000B68186091F8403001209840CB6BA7
:100540005860012081F8210000BF002081F82000C0
:1005500000BF1046E2E7000070B50446002594F89D
:100560002100022803D00420A063012548E0206870
:10057000006820F00E00216808602068006820F004
:100580000100216808601F492068884201D10120CC
:1005900026E01C4914312068884201D110201FE058
:1005A000184928312068884201D1801518E0154982
:1005B0003C312068884201D1801411E0114950314A
:1005C0002068884202D14FF4803009E00D4964313F
:1005D0002068884202D14FF4801001E04FF0807013
:1005E000084908394860012084F8210000BF002034
:1005F00084F8200000BF606B10B12046616B884713
:10060000284670BD0800024070B50446E06B0568DE
:100610002068066894F8401004208840284000288C
:1006200046D006F00400002842D02068006800F0A0
:10063000200028B92068006820F0040021680860C4
:1006400057492068884201D1042027E054491431D9
:100650002068884201D1402020E05149283120689B
:10066000884201D1001519E04D493C31206888428B
:1006700002D14FF4804011E049495031206888424E
:1006800002D14FF4802009E0454964312068884256
:1006900002D14FF4800001E04FF0806040490839FA
:1006A0004860E06A00287AD02046E16A884776E010
:1006B00094F84010022088402840A0B306F00200C1
:1006C00088B32068006800F0200040B92068006806
:1006D00020F00A0021680860012084F821003049D8
:1006E0002068884201D1022028E02D491431206879
:1006F000884201D1202021E0294928312068884200
:1007000001D140151AE026493C312068884202D1C7
:100710004FF4005012E0224950312068884203D142
:100720004FF400300AE017E01D4964312068884228
:1007300002D14FF4001001E04FF000701849083961
:10074000486000BF002084F8200000BFA06A30B3DA
:100750002046A16A884722E094F84010082088408B
:100760002840E0B106F00800C8B12068006820F019
:100770000E002168086094F8401001208840E16B69
:1007800048600120A06384F8210000BF002084F8A5
:10079000200000BF206B10B12046216B884770BD40
:1007A000080002400146002209B901207047164B9B
:1007B0000868C01A1423B0FBF3F0800008641248E4
:1007C0000838C863022081F821000868026843F6EF
:1007D000F0708243D1E901031843CB6818430B69D9
:1007E00018434B6918438B691843CB69184302437C
:1007F0000868026000208863012081F82100002041
:1008000081F8200000BFD1E7080002402DE9F04147
:1008100004460D4616461F464FF0000800BF94F8E8
:100820002000012802D10220BDE8F081012084F8D7
:10083000200000BF94F8210001282CD1022084F868
:1008400021000020A0632068006820F001002168DA
:1008500008603B46324629462046FFF7BFFDE06A66
:1008600030B12068006840F00E00216808600BE09D
:100870002068006820F00400216808602068006893
:1008800040F00A00216808602068006840F001001C
:100890002168086006E000BF002084F8200000BF47
:1008A0004FF002084046BFE770B5044600F0AEF9CD
:1008B00006462546681C10B104480078054400BF70
:1008C00000F0A4F9801BA842FAD370BD08000020F4
:1008D0002DE9F8470346002294466EE14FF00108E7
:1008E00008FA02F4D1F8008008EA0400A0427DD1A1
:1008F000DFF8DCA2D1F80480A8EB0A09D0453AD091
:1009000014DCB8F1030F50D009DCB8F1000F31D07E
:10091000B8F1010F1CD0B8F1020F49D120E0B8F1B5
:10092000110F18D0B8F1120F42D11EE0B9F5881F8F
:1009300025D006DCB9F5803F20D0B9F5801F37D12E
:100940001AE0B9F5001F18D0B9F5041F30D117E02F
:10095000D1F80CC02DE0D1F80C8008F1040C28E08F
:10096000D1F80C8008F1080C23E0D1F80C8008F1D4
:100970000C0C1EE000BF00BF00BF00BF00BF00BFE7
:10098000D1F80880B8F1000F02D14FF0040C0BE051
:10099000D1F80880B8F1010F03D14FF0080C1C61A9
:1009A00002E04FF0080C5C6103E04FF0000C00E047
:1009B00000BF00BFFF2801D8984601E003F10408FA
:1009C0004646FF2802D84FEA820803E0A2F1080851
:1009D0004FEA88084746D6F800804FF00F0909FA19
:1009E00007F928EA09080CFA07F900E088E048EA64
:1009F0000908C6F80080D1F8048008F08058B8F1E2
:100A0000805F7DD100BFDFF8CC81D8F8188048F036
:100A10000108DFF8C091C9F81880C846D8F81880D6
:100A200008F00108CDF8008000BF00BF4FEAB938D8
:100A30004FEA920958F829504FEA82784FEA18791C
:100A40004FF00F0808FA09F825EA0805DFF8888151
:100A5000434502D14FF0000816E0DFF8808143459E
:100A600002D14FF001080FE0DFF87481434502D155
:100A70004FF0020808E0DFF86C81434502D14FF0E7
:100A8000030801E04FF004084FEA82794FEA197930
:100A900008FA09F848EA0505DFF84C814FEA92099F
:100AA00048F82950D1F8048008F48018B8F5801F60
:100AB0000AD1DFF83881D8F8008048EA0008DFF86A
:100AC0002C91C9F8008009E0DFF82081D8F8008077
:100AD00028EA0008DFF81491C9F80080D1F80480F2
:100AE00008F40018B8F5001F10D1DFF8008108F1F4
:100AF0000408D8F8008048EA0008DFF8F09000E029
:100B00005AE009F10409C9F800800DE0DFF8DC8043
:100B100008F10408D8F8008028EA0008DFF8CC9033
:100B200009F10409C9F80080D1F8048008F40038FC
:100B3000B8F5003F0ED1DFF8B480A8F10408D8F86A
:100B4000008048EA0008DFF8A490A9F10409C9F878
:100B500000800DE0DFF89480A8F10408D8F8008048
:100B600028EA0008DFF88490A9F10409C9F8008098
:100B7000D1F8048008F48038B8F5803F0ED1DFF852
:100B80006C80A8F10808D8F8008048EA0008DFF86F
:100B90005C90A9F10809C9F800800DE0DFF84C80ED
:100BA000A8F10808D8F8008028EA0008DFF83C908F
:100BB000A9F10809C9F80080521CD1F8008028FA70
:100BC00002F8B8F1000F7FF489AEBDE8F8870000A5
:100BD000000011100010024000080140000C01400C
:100BE00000100140001401400800014008040140C9
:100BF000024693680B400BB1012000E000207047D3
:100C00000AB1016101E00B0403617047014800680B
:100C1000704700000000002003480068034909787D
:100C200008440149086070470000002008000020C7
:100C300010B50848006840F010000649086003201D
:100C400000F0A8F80F2000F007F800F02BF80020C3
:100C500010BD00000020024070B504460E48007828
:100C60004FF47A71B1FBF0F00C490968B1FBF0F573
:100C7000284600F0F9FB08B1012070BD102C07D206
:100C800000222146501E00F047F80548046001E0AC
:100C90000120F2E70020F0E7080000200C0000200F
:100CA0000400002008B500BF1148806940F0010031
:100CB0000F4988610846806900F00100009000BF7C
:100CC00000BF00BF0846C06940F08050C8610846B8
:100CD000C06900F08050009000BF00BF00BF054910
:100CE000486820F0E06040F00070486000BF08BD38
:100CF000001002400000014001460846002809DBC0
:100D000000F01F0301229A4043099B0003F1E023F6
:100D1000C3F8002100BF70472DE9F05F80460D4603
:100D20001646002702F0F4FA074639462A463346AB
:100D300001F00700C0F1070ABAF1040F02D94FF021
:100D4000040A01E0C0F1070AD14600F1040ABAF131
:100D5000070F02D24FF0000A01E0A0F1030AD446C7
:100D60004FF0010A0AFA09FAAAF1010A0AEA020A8C
:100D70000AFA0CFA4FF0010B0BFA0CFBABF1010B6A
:100D80000BEA030B4AEA0B042146404602F0C8FA7C
:100D9000BDE8F09F00BF00F00702064B19684FF650
:100DA000FF031940044B0B4343EA0221014B196036
:100DB00000BF70470CED00E00000FA0570B5044676
:100DC0000D460CB9012070BD5A48006800F00700BC
:100DD000A8420ED25748006820F007002843554922
:100DE00008600846006800F00700A84201D0012012
:100DF000E9E7207800F0020002281DD1207800F0F9
:100E00000400042805D14C48406840F4E0604A4999
:100E10004860207800F00800082805D1464840685E
:100E200040F46050444948604348406820F0F00076
:100E3000A168084340494860207800F0010078B379
:100E40006068012806D13C48006800F4003090B981
:100E50000120B8E76068022806D13748006800F032
:100E6000007040B90120AEE73348006800F002008E
:100E700008B90120A7E73048406820F00300616806
:100E800008432D494860FFF7C1FE064609E0FFF719
:100E9000BDFE801B41F28831884202D9032092E7CF
:100EA00007E02548406800F00C006168B0EB810F56
:100EB000EDD12048006800F00700A8420ED91D4877
:100EC000006820F0070028431A49086008460068B7
:100ED00000F00700A84201D0012074E7207800F05C
:100EE0000400042807D11448406820F4E060E16859
:100EF000084311494860207800F00800082808D10C
:100F00000D48406820F46050216940EAC1000A4958
:100F1000486000F03FF808494968C1F30311074AE7
:100F2000515CC8400649086006480068FFF794FE17
:100F3000002048E700200240001002401836000858
:100F40000C000020040000200148006870470000E9
:100F50000C00002000B5FFF7F7FF04494968C1F312
:100F60000221034A515CC84000BD0000001002404D
:100F70002836000800B5FFF7E7FF04494968C1F3C8
:100F8000C221034A515CC84000BD0000001002406D
:100F90002836000870B5002100220024002300201C
:100FA000134D696801F00C05F5B1042D02D0082D30
:100FB00019D101E00F4819E00F4DC1F38346AB5D35
:100FC00001F4803555B10A4D6D68C5F340450B4EAF
:100FD000725D084D5D43B5FBF2F402E0084D03FB82
:100FE00005F4204602E000BF024800BF00BF70BD0C
:100FF0000010024000127A0006360008163600087B
:1010000000093D00F8B504460CB90120F8BD207870
:1010100000F00100002878D0F848406800F00C008B
:1010200004280CD0F548406800F00C00082811D1C5
:10103000F248406800F48030B0F5803F0AD1EF48B4
:10104000006800F4003000285FD0606800285CD1A0
:101050000120DBE700BF6068B0F5803F06D1E748BC
:10106000006840F48030E549086028E0606858B9BD
:10107000E248006820F48030E049086008460068D3
:1010800020F4802008601AE06068B0F5A02F0BD132
:10109000DA48006840F48020D849086008460068B3
:1010A00040F4803008600AE0D448006820F48030C2
:1010B000D24908600846006820F48020086000BF1C
:1010C000606888B1FFF7A2FD054606E0FFF79EFDC8
:1010D000401B642801D9032098E7C848006800F441
:1010E00000300028F2D010E0FFF790FD054606E042
:1010F000FFF78CFD401B642801D9032086E7BF4819
:10110000006800F400300028F2D1207800F00200DE
:10111000022857D1B948406800F00C0050B1B748D8
:10112000406800F00C00082818D1B448406800F46A
:10113000803098B9B148006800F0020020B1206901
:10114000012801D0012061E7AC48006820F0F800D8
:10115000616940EAC100A949086033E02069E8B14B
:101160000120A7490860FFF751FD054606E0FFF79B
:101170004DFD401B022801D9032047E79F48006826
:1011800000F002000028F2D09C48006820F0F8002F
:10119000616940EAC1009949086013E0002098495C
:1011A0000860FFF733FD054606E0FFF72FFD401B03
:1011B000022801D9032029E79048006800F00200C6
:1011C0000028F2D1207800F0080008282DD1A0696D
:1011D000B8B101208B490860FFF718FD054606E00D
:1011E000FFF714FD401B022801D903200EE78348B6
:1011F000406A00F002000028F2D0012001F0E8FA75
:1012000013E000207F490860FFF700FD054606E077
:10121000FFF7FCFC401B022801D90320F6E67748C3
:10122000406A00F002000028F2D1207800F00400AB
:10123000042873D100277148C06900F0805070B94C
:1012400000BF6E48C06940F080506C49C8610846D4
:10125000C06900F08050009000BF00BF01276A48BD
:10126000006800F48070B0B96748006840F480708E
:1012700065490860FFF7CAFC054606E0FFF7C6FCB3
:10128000401B642801D90320C0E65F48006800F4D1
:1012900080700028F2D000BFE068012806D15748CE
:1012A000006A40F001005549086227E0E06858B93B
:1012B0005248006A20F00100504908620846006A5E
:1012C00020F00400086219E0E06805280BD14B48C3
:1012D000006A40F00400494908620846006A40F08C
:1012E000010008620AE04548006A20F00100434915
:1012F00008620846006A20F00400086200BFE06847
:10130000A0B1FFF783FC054609E0FFF77FFC401B17
:1013100041F28831884202D9032077E622E037483B
:10132000006A00F002000028EFD012E0FFF76EFC28
:10133000054608E0FFF76AFC401B41F2883188420D
:1013400001D9032062E62D48006A00F0020000285F
:10135000F0D1012F05D12948C06920F080502749DC
:10136000C86100BFE069C8B32448406800F00C00C1
:10137000082860D0E069022848D10020204908668A
:10138000FFF744FC054606E0FFF740FC401B02283F
:1013900001D903203AE61948006800F000700028DF
:1013A000F2D1206AB0F5803F07D11448406820F49C
:1013B0000030A168084311494860D4E90801084396
:1013C0000E49496821F4741108430C494860012012
:1013D0000B490866FFF71AFC054607E03DE0FFF7FA
:1013E00015FC401B022801D903200FE603480068C2
:1013F00000F000700028F2D02FE000000010024042
:101400000000424280044242007000400020144923
:101410000866FFF7FBFB054606E0FFF7F7FB401BFE
:10142000022801D90320F1E50E48006800F00070A1
:101430000028F2D111E0E069012800D1E6E5094871
:10144000466806F48031206A814204D106F47011A6
:10145000606A814201D00120D8E50020D6E5000075
:10146000000042420010024070B504462546681E46
:10147000B0F1807F01D301200FE0681E4FF0E02122
:1014800048610F214FF0FF3001F04AFF00204FF07C
:10149000E021886107200861002070BD7047704717
:1014A00030B502460B4600BF92F83C00012801D13E
:1014B000022030BD012082F83C0000BF022082F8EB
:1014C0003D00106844681068816824F07004186852
:1014D000044310684460104D1068A8420BD0106897
:1014E000B0F1804F07D00D4D1068A84203D00C4DCD
:1014F0001068A84205D121F08001586801431068A6
:101500008160012082F83D0000BF002082F83C008D
:1015100000BF00BFCDE70000002C014000040040E8
:101520000008004010B504460CB9012010BD94F825
:101530003D0028B9002084F83C00204600F026F841
:10154000022084F83D00211D206801F097F9012058
:1015500084F8460000BF84F83E0001213F20015579
:10156000402001554120015500BF00BF012084F8F3
:10157000420043200155442001554520015500BF3C
:10158000012084F83D000020D0E7000038B5044673
:1015900016492068884216D100BF1548806940F47A
:1015A0000060134988610846806900F4006000907B
:1015B00000BF00BF002211461920FFF7ADFB192024
:1015C000FFF79AFB11E02068B0F1804F0DD100BF0A
:1015D0000748C06940F001000549C8610846C06974
:1015E00000F00100009000BF00BF38BD002C01409A
:1015F00000100240014691F83D00012801D0012071
:101600007047022081F83D000868C06840F0010082
:101610000B68D860124B086898420BD00868B0F18C
:10162000804F07D00F4B0868984203D00E4B0868D4
:1016300098420CD10868806800F00702062A0CD096
:101640000868006840F001000B68186005E0086851
:10165000006840F001000B6818600020D0E700002F
:10166000002C014000040040000800402DE9F0413A
:1016700004460D46002700BF94F83C00012802D123
:101680000220BDE8F081012084F83C0000BF022068
:1016900084F83D002068866826F0770626F47F46A9
:1016A000206886602868502833D00CDC202850D071
:1016B00004DC00284BD0102851D149E0302849D013
:1016C00040284CD139E060282DD0702807D0B0F5E3
:1016D000805F03D0B0F5005F41D10DE041E0D5E976
:1016E00002136A68206801F01CF92068866846F0D9
:1016F00077062068866034E0D5E902136A682068BE
:1017000001F00FF92068806840F48040216888600B
:1017100027E0EA686968206801F0D4F95021206860
:1017200001F00AF91DE0EA686968206801F0DDF956
:101730006021206801F000F913E0EA686968206818
:1017400001F0C0F94021206801F0F6F809E000BF7F
:1017500000BF00BF2968206801F0EEF801E0012712
:1017600000BF00BF012084F83D0000BF002084F8C6
:101770003C0000BF384684E7704770B504462068D7
:10178000C5682068066906F00200022819D105F034
:101790000200022815D1401F21680861012020772E
:1017A0002068806900F0030018B12046FFF7E4FFCD
:1017B00005E0204600F0E8F8204600F09CF9002003
:1017C000207706F00400042819D105F0040004284D
:1017D00015D1C04321680861022020772068806904
:1017E00000F4407018B12046FFF7C6FF05E0204620
:1017F00000F0CAF8204600F07EF90020207706F0BD
:101800000800082819D105F00800082815D1C043A0
:1018100021680861042020772068C06900F0030077
:1018200018B12046FFF7A8FF05E0204600F0ACF80D
:10183000204600F060F90020207706F01000102804
:1018400019D105F01000102815D1C0432168086196
:10185000082020772068C06900F4407018B1204645
:10186000FFF78AFF05E0204600F08EF8204600F0E2
:1018700042F90020207706F0010048B105F0010090
:1018800030B16FF0010021680861204600F09EF938
:1018900006F08000802809D105F08000802805D15D
:1018A000C043216808612046FFF7F8FD06F04000BC
:1018B000402809D105F04000402805D1C0432168E7
:1018C0000861204600F0FAF906F02000202809D12E
:1018D00005F02000202805D1C0432168086120467A
:1018E000FFF7DDFD70BD000010B586B00446002096
:1018F00002900390049005902068B0F1804F38D199
:1019000000BF1D48806940F004001B4988610846FB
:10191000806900F00400019000BF00BF00BF0846CE
:10192000806940F0080088610846806900F008007E
:10193000019000BF00BF0320029002200390059099
:1019400002A90E48FEF7C4FF4FF480600290022007
:101950000390059002A90A48FEF7BAFF00BF0949A3
:10196000486820F4407040F0E06040F40070486047
:1019700000BF06B010BD000000100240000801408A
:10198000000C01400000014070472DE9F041044681
:101990000D461646002700BF94F83C00012802D1EE
:1019A0000220BDE8F081012084F83C0000BF36B180
:1019B000042E1BD0082E31D00C2E5ED145E02946D6
:1019C000206800F0C3FF2068806940F008002168AB
:1019D00088612068806920F004002168886120689F
:1019E0008069296908432168886148E029462068A0
:1019F00000F0DCFF2068806940F4006021688861A5
:101A00002068806920F4806021688861206880698E
:101A1000296940EA01202168886130E02946206870
:101A200000F0F8FF2068C06940F008002168C86134
:101A30002068C06920F004002168C8612068C0697E
:101A4000296908432168C86119E02946206801F026
:101A500015F82068C06940F400602168C8612068FA
:101A6000C06920F480602168C8612068C069296964
:101A700040EA01202168C86101E0012700BF00BFE2
:101A800000BF002084F83C0000BF384689E710B54D
:101A900004460CB9012010BD94F83D0028B900207F
:101AA00084F83C00204600F025F8022084F83D0030
:101AB000211D206800F0E2FE012084F8460000BFEE
:101AC00084F83E0001213F2001554020015541206E
:101AD000015500BF00BF012084F84200432001559A
:101AE000442001554520015500BF012084F83D00E8
:101AF0000020D0E77047704770B504460D4615B911
:101B000094F83E000BE0042D02D13F20005D06E07A
:101B1000082D02D14020005D01E04120005D012838
:101B200001D0012070BD1DB9022084F83E000EE0F6
:101B3000042D03D102213F20015508E0082D03D1D7
:101B400002214020015502E00221412001550122DD
:101B50002946206800F0D4FE19492068884201D146
:101B6000012000E0002028B12068406C40F40040D3
:101B7000216848641249206888420BD02068B0F17F
:101B8000804F07D00F492068884203D00E49206853
:101B900088420CD12068806800F00706062E0CD021
:101BA0002068006840F001002168086005E02068B6
:101BB000006840F00100216808600020B2E70000E2
:101BC000002C0140000400400008004038B50446E5
:101BD000204884423CD120480088401C1E4908808F
:101BE00008460088B0F57A7F2BD11C480068401C5D
:101BF0001A490860002018490880FEF7F7FA00909B
:101C00001748BDF8001001809DF802108170FEF7A2
:101C100021FB00901348BDF800100180417812A00C
:101C200001F066FB0E48017815A001F061FB0C483D
:101C3000417818A001F05CFB094881781AA001F0F6
:101C400057FB06480068022802D1002003490860BB
:101C500038BD0000500000204A0000204000002055
:101C600044000020470000204C6F672074656D70B1
:101C7000657261747572653A25640D0A0000000092
:101C80004C6F6720427574746F6E313A25640D0A8B
:101C9000000000004C6F6720427574746F6E323A1A
:101CA00025640D0A000000004C6F672042757474B3
:101CB0006F6E333A25640D0A000000007047F8B5D6
:101CC00004460D46164694F8420020282DD105B151
:101CD0000EB90120F8BD0120206300206063324668
:101CE0002946204601F0A8F90746206B012819D1A2
:101CF00000BF0020009020680068009020684068C5
:101D0000009000BF00BF00BF00BF21680C3151E848
:101D1000001F41F0100021680C3141E80002002A48
:101D2000F3D100E001273846D4E70220D2E70000D3
:101D300070B505460E4614492868884223D11348D9
:101D400001F026FC88B900240CE0104801F020FCCA
:101D500028B90F48015D0D4801F03DFC00E003E0AB
:101D6000601C84B2B442F0DB00BF4FF480710848BD
:101D7000FEF7DFF94FF4807205492846FFF79FFF11
:101D800001200449087070BD00440040B4020020E6
:101D9000B401002018000020704700002DE9F84F22
:101DA0000446206805682068C668206847694FF0C7
:101DB0000009CA4605F00F09B9F1000F0AD105F074
:101DC000200038B106F0200020B1204601F037F89D
:101DD000BDE8F88FB9F1000F7BD007F0010018B90A
:101DE00006F49070002874D005F0010030B106F4BC
:101DF000807018B1606C40F00100606405F0040070
:101E000030B107F0010018B1606C40F0020060646E
:101E100005F0020030B107F0010018B1606C40F02D
:101E20000400606405F0080048B106F0200010B915
:101E300007F0010018B1606C40F008006064606C4D
:101E4000002845D005F0200028B106F0200010B190
:101E5000204600F0F4FF20684069C0F3801A606CEF
:101E600000F0080010B9BAF1000F2CD0204600F0A5
:101E70008DFF2068406900F0400000B300BF00BF44
:101E80002168143151E8001F21F04000216814310D
:101E900041E80002002AF3D100BFE06B50B177485F
:101EA000E16B4863E06BFEF757FB88B1E06B416B79
:101EB00088470DE02046FFF76FFF09E009E0204664
:101EC000FFF76AFF04E02046FFF766FF002060642A
:101ED0007EE7206B012877D105F01000002873D031
:101EE00006F010000028FAD000BF00200090206803
:101EF0000068009020684068009000BF00BF206824
:101F0000406900F0400000285FD0E06B0068406846
:101F10001FFA80F8B8F1000F55D0A08D404552DD72
:101F2000A4F82E80E06B8069202843D000BF00BF5A
:101F300021680C3151E8001F21F4807021680C31B8
:101F400041E80002002AF3D100BF00BF00BF2168B2
:101F5000143151E8001F21F001002168143141E8DB
:101F60000002002AF3D100BF00BF00BF2168143176
:101F700051E8001F21F040002168143141E80002BF
:101F8000002AF3D100BF202084F842000020206303
:101F900000BF00BF21680C3151E8001F21F0100084
:101FA00021680C3141E80002002AF3D100BFE06B48
:101FB000FEF7A6FA02206063A08DE28D801A81B23E
:101FC0002046FFF7B5FE03E742E0A08DE18D401A01
:101FD0001FFA80F8E08DD0B3B8F1000F37D000BF02
:101FE00000BF21680C3151E8001F21F49070216876
:101FF0000C3141E80002002AF3D100BF00BF00BF4E
:102000002168143151E8001F21F0010021681431CA
:1020100041E80002002AF3D100BF202084F84200EA
:102020000020206300BF00BF21680C3151E8001F71
:1020300021F0100021680C3141E80002002AF3D1A0
:1020400000BF0220606341462046FFF771FEBFE6F5
:1020500005F0800030B106F0800018B1204601F094
:102060004FF8B5E605F0400030B106F0400018B179
:10207000204600F0C1FEABE600BFA9E6D12B000868
:1020800010B504460CB9012010BDA06900B100E0F4
:1020900000BF94F8410028B9002084F84000204691
:1020A00000F02AF8242084F841002068C06820F459
:1020B00000502168C860204600F040FF2068006999
:1020C00020F49040216808612068406920F02A00CF
:1020D000216848612068C06840F400502168C860E9
:1020E00000206064202084F8410084F84200002031
:1020F000606300BFC8E7000010B586B0044600204A
:10210000029003900490059048492068884237D196
:1021100000BF4748806940F48040454988610846CF
:10212000806900F48040019000BF00BF00BF0846F6
:10213000806940F0040088610846806900F004006E
:10214000019000BF00BF48150290022003900320B9
:10215000059002A93748FEF7BBFB4FF48060029060
:1021600000200390049002A93248FEF7B1FB002240
:1021700011462520FEF7D0FD2520FEF7BDFD52E0DB
:102180002D49206888424ED100BF2948C06940F4DB
:1021900000302749C8610846C06900F4003001904A
:1021A00000BF00BF00BF0846806940F0040088619E
:1021B0000846806900F00400019000BF00BF0420C1
:1021C0000290022003900320059002A91948FEF70F
:1021D0007FFB0820029000200390049002A915487C
:1021E000FEF776FB1548164908600020486000217C
:1021F000134881608021C1600021016141618161DA
:10220000C161FEF7CFFA08B1FEF734F900BF0C4800
:10221000E063446200BF002211462620FEF77CFDE9
:102220002620FEF769FD06B010BD00000038014011
:102230000010024000080140004400406C000240D1
:1022400070010020704770472DE9F84F04460E4694
:10225000174699464FF0000A94F84100202850D1C3
:1022600006B117B90120BDE8F88F00206064212075
:1022700084F84100FEF7CAFC8246A784E784A06880
:10228000B0F5805F04D1206910B90025B04602E0A6
:1022900035464FF000081EE05346002280212046BC
:1022A000CDF8009000F05CFF20B1202084F84100C0
:1022B0000320D8E745B9B8F80000C0F3080021684A
:1022C000486008F1020803E02878216848606D1C26
:1022D000E08C401EE084E08C0028DDD153460022D3
:1022E00040212046CDF8009000F03AFF20B1202098
:1022F00084F841000320B6E7202084F84100002044
:10230000B1E70220AFE70000F7B50446154694F8A0
:102310004100202836D1019800B10DB90120FEBD41
:1023200001982062A584E58400206064212084F85F
:1023300041001548A16B88621448A16BC86214481B
:10234000A16B08630020A16B486301AE23681A1DCE
:1023500031682B46A06BFEF759FA6FF040002168F8
:10236000086000BF00BF2168143151E8001F41F030
:1023700080002168143141E80002002AF3D100BF37
:102380000020CCE70220CAE70D2D0008652D0008CB
:10239000E52B000838B504460B492068884211D166
:1023A0000A4801F0EDF848B96946084801F0FAF822
:1023B000012269460648FFF7A7FF02E00020054911
:1023C000087000BF38BD000000440040C00300207A
:1023D0002801002010000020704700BFFEE770B504
:1023E00004460D46002229462046FEF709FC70BD32
:1023F00070B504460D46012229462046FEF700FC32
:1024000070BD70B504460D4629462046FFF774FBA3
:1024100070BD30B50B46642A00DD64220468E46AAE
:1024200054436425B4FBF5F113B9046861630BE010
:10243000042B02D10468A16306E0082B02D10468D2
:10244000E16301E00468216430BD000010B504467A
:1024500034B1012C0AD0022C0ED0032C18D111E07B
:10246000002208210C48FFF7D4FF12E00A220821BD
:102470000948FFF7CEFF0CE0322208210648FFF79B
:10248000C8FF06E0642208210348FFF7C2FF00E00E
:1024900000BF00BF10BD00009800002008B500BFBD
:1024A0000A48406940F0010008494861084640690F
:1024B00000F00100009000BF00BF00221146102074
:1024C000FEF72AFC1020FEF717FC08BD00100240A2
:1024D00000B585B00020019002900390049000BFE9
:1024E0002848806940F010002649886108468069C4
:1024F00000F01000009000BF00BF00BF08468069D8
:1025000040F0200088610846806900F020000090BB
:1025100000BF00BF00BF0846806940F0040088612A
:102520000846806900F00400009000BF00BF00BFB3
:102530000846806940F0080088610846806900F01C
:102540000800009000BF00BF002230210E48FEF7B7
:1025500057FB3020019001200290002003900220C0
:10256000049001A90848FEF7B3F94FF444700190B4
:10257000002002900120039001A90448FEF7A8F969
:1025800005B000BD0010024000080140000C0140F1
:1025900000B587B00020039004900590069001904C
:1025A00002901548154908604720486000211348EB
:1025B000816040F2E731C1600021016141618161C8
:1025C000FEF7B0FF08B1FDF755FF4FF480500390C0
:1025D00003A90A48FFF74AF808B1FDF74BFF0020AE
:1025E0000190029001A90548FEF75AFF08B1FDF7D6
:1025F00041FF07B000BD0000002C0140500000204A
:1026000000B58DB0002009900A900B900C900790B7
:1026100008901C216846FDF78CFD4FF0804027494B
:102620000860002048600021244881604FF6FF7157
:10263000C160002101618161FEF774FF08B1FDF7FF
:1026400019FF4FF48050099009A91C48FFF70EF8B4
:1026500008B1FDF70FFF1948FFF719FA08B1FDF7A8
:1026600009FF00200790089007A91448FEF718FFFB
:1026700008B1FDF7FFFE602000900020019002905D
:102680000490002269460D48FFF77FF908B1FDF775
:10269000F1FE042269460948FFF777F908B1FDF712
:1026A000E9FE082269460548FFF76FF908B1FDF712
:1026B000E1FE0248FFF718F90DB000BD98000020B8
:1026C00010B50B480B4908604FF4E1304860002119
:1026D00008488160C16001610C2141610021816174
:1026E000C161FFF7CDFC08B1FDF7C4FE10BD0000CD
:1026F00000380140E000002010B50B480B4908608D
:102700004FF4E1304860002108488160C1600161F8
:102710000C21416100218161C161FFF7B1FC08B169
:10272000FDF7A8FE10BD0000004400402801002075
:1027300000BFFEE710B50446D4E9060100F022F818
:10274000216AA06900F01EF810BD70B504460D4660
:10275000164655B93246D4E9060100F01BF80022AE
:10276000216AA06900F016F809E00022D4E9060108
:1027700000F010F83246216AA06900F00BF870BD35
:1027800000BFFEE770B504460D4629462046FFF718
:10279000B3F970BD30B50B46642A00DD64220468CD
:1027A000E46A54436425B4FBF5F113B9046861632A
:1027B0000BE0042B02D10468A16306E0082B02D1D0
:1027C0000468E16301E00468216430BD70470000E3
:1027D00008B508490968C9084FF47A72B1FBF2F1EB
:1027E0004143009100BF00BF00994A1E009200299A
:1027F000F9D108BD0C000020704710B5FEF70CFAA7
:1028000010BD00B58FB0282105A8FDF792FC14215A
:102810006846FDF78EFC012005900004069000201C
:1028200007900120099002200C90C1030D914FF4F4
:10283000E0110E9105A8FEF7E5FB08B1FDF71AFEC1
:102840000F20009002200190002002904FF4806041
:1028500003900020049002216846FEF7AFFA08B109
:10286000FDF708FE0FB000BD7047000010B502482C
:10287000FEF783FF10BD00005000002010B5026875
:102880001C4B984208D0B0F1804F05D01A4B9842AB
:1028900002D01A4B984203D122F070024B681A43BF
:1028A000144B984208D0B0F1804F05D0124B98429B
:1028B00002D0124B984203D122F44072CB681A43E3
:1028C00022F080034C6943EA040202608B68C36211
:1028D0000B688362074B984201D10B6903630123A4
:1028E0004361036903F001031BB1036923F0010392
:1028F000036110BD002C01400004004000080040AE
:1029000030B501F01F05012404FA05F3046A9C4365
:102910000462046A01F01F0502FA05F52C43046203
:1029200030BD30B50C46816821F47F4142EA032571
:1029300025432943816030BD0A46816821F070013A
:1029400042F00703194381607047000030B5026A06
:10295000056A25F0010505624368846924F0700466
:1029600024F003040D682C4322F002028D682A43F0
:102970000D4DA84206D100BF22F00802CD682A43BF
:1029800022F00402084DA84207D123F4807323F4F7
:1029900000734D692B438D692B43436084614D68FF
:1029A0004563026230BD0000002C014030B5026A70
:1029B000056A25F0100505624368846924F4E04443
:1029C00024F440740D6844EA052422F020028D6846
:1029D00042EA05120E4DA84207D100BF22F0800244
:1029E000CD6842EA051222F04002094DA84209D101
:1029F00023F4806323F400634D6943EA85038D6902
:102A000043EA8503436084614D688563026230BD9B
:102A1000002C014030B5026A056A25F48075056214
:102A20004368C46924F0700424F003040D682C4347
:102A300022F400728D6842EA05220F4DA84207D1A8
:102A400000BF22F40062CD6842EA052222F48062CF
:102A5000094DA84209D123F4805323F400534D6952
:102A600043EA05138D6943EA05134360C4614D6869
:102A7000C563026230BD0000002C014030B5036A1E
:102A8000056A25F4805505624468C26922F4E04273
:102A900022F440720D6842EA052223F400538D6847
:102AA00043EA0533064DA84204D124F480444D691D
:102AB00044EA85144460C2614D680564036230BD18
:102AC000002C014030B50B461446026A056A25F019
:102AD00001050562816921F0F00141EA041122F04B
:102AE0000A021A438161026230BD30B50B461446BA
:102AF000026A056A25F010050562816921F47041BA
:102B000041EA043122F0A00242EA0312816102622A
:102B100030BD000010B5FEF779F824490860244A5A
:102B200020212448FDF7A0FB68B1214840781B28EC
:102B300009DD2148007830B11C4800681F49086051
:102B400000201D4908701E48007860B917480068C9
:102B50001C490968401AB0F5966F04D9012018493C
:102B60000870154908701648007802280AD10F48E5
:102B7000006815490968401A1449884202D90120A1
:102B80000F4908700E48007801280ED107480068E8
:102B90000A490968401AB0F5966F06D903480068DB
:102BA0000949086002200649087010BD3C00002059
:102BB00027000020000801403800002030000020DD
:102BC000290000202C00002034000020009749013B
:102BD00070B505466C6A0020E085E0842046FFF76A
:102BE000DBF870BD70B506460025746A2068406940
:102BF000C0F3C01594F84100212805D125B100206B
:102C0000E084204600F008F920684069C0F3801590
:102C100094F84200222805D125B10020E085204605
:102C200000F0B4F8606C40F0100060642046FFF7DC
:102C3000B3F870BD70B505466C6A2868006800F08E
:102C40002000002842D1E08500BF00BF21680C3180
:102C500051E8001F21F4807021680C3141E8000226
:102C6000002AF3D100BF00BF00BF2168143151E832
:102C7000001F21F001002168143141E80002002A00
:102C8000F3D100BF00BF00BF2168143151E8001F1D
:102C900021F040002168143141E80002002AF3D1FC
:102CA00000BF202084F84200206B01280ED100BF15
:102CB00000BF21680C3151E8001F21F0100021688D
:102CC0000C3141E80002002AF3D100BF002060630C
:102CD000206B012804D1A18D2046FFF729F802E0DE
:102CE0002046FFF7AFFA70BD70B505466C6A01204B
:102CF0006063206B012805D1A08D41082046FFF7B5
:102D000017F802E02046FFF79EFA70BD70B5054641
:102D10006C6A2868006800F02000F8B90020E084A0
:102D200000BF00BF2168143151E8001F21F080006E
:102D30002168143141E80002002AF3D100BF00BF2E
:102D400000BF21680C3151E8001F41F040002168AC
:102D50000C3141E80002002AF3D102E02046FFF7DF
:102D600019FB70BD70B50446656A2846FFF734FB51
:102D700070BD000010B54FF4807202490248FEF7A2
:102D80009EFF10BDB40100202801002000BF00BF3D
:102D900002680C3252E8002F22F4907102680C3263
:102DA00042E80013002BF3D100BF00BF00BF026850
:102DB000143252E8002F22F001010268143242E876
:102DC0000013002BF3D100BF016B01290ED100BF0E
:102DD00000BF02680C3252E8002F22F01001026896
:102DE0000C3242E80013002BF3D100BF202180F801
:102DF000421000210163704710B504462068C06886
:102E000020F040002168C860202084F8410020465E
:102E1000FFF7C0FA002010BD00BF00BF02680C32EF
:102E200052E8002F22F0C00102680C3242E8001381
:102E3000002BF3D100BF202180F841107047F8B576
:102E4000044694F84200222875D1A068B0F5805F4E
:102E50000CD1206950B90025A66A20684068C0F3EB
:102E600008003080A06A801CA06215E0A56A0026D8
:102E7000A068B0F5805F03D0A06828B9206918B9B0
:102E800020684068287004E02068406800F07F00F7
:102E90002870A06A401CA062E08D401E80B2E085D0
:102EA000002846D12068C06820F020002168C86052
:102EB0002068C06820F480702168C860206840697C
:102EC00020F0010021684861202084F842000020A1
:102ED0006063206B012826D10020206300BF00BF63
:102EE00021680C3151E8001F21F0100021680C31DD
:102EF00041E80002002AF3D100BF2068006800F01A
:102F0000100010280AD100BF00200090206800683F
:102F1000009020684068009000BF00BFA18D20464F
:102F2000FEF706FF02E02046FFF78CF90020F8BD0F
:102F300001E00020FBE70220F9E7000070B504463D
:102F40002168096921F44051E26811432268116146
:102F50002269A1681143626941EA02052168C968D2
:102F600041F20C62914329432268D160216849698A
:102F700021F44071A2691143226851612D4A2168F0
:102F8000914202D1FDF7F6FF01E0FDF7E3FF00EB10
:102F9000C00101EB001162689200B1FBF2F100EB9D
:102FA000C00202EB001263689B00B2FBF3F26423E1
:102FB000B2FBF3F202EBC20303EB0212A1EB8201BC
:102FC000322202EB01116422B1FBF2F101F0F001B7
:102FD00000EBC00202EB001263689B00B2FBF3F24D
:102FE0006423B2FBF3F201EB021200EBC00101EB30
:102FF000001163689B00B1FBF3F100EBC00303EB2E
:1030000000136668B600B3FBF6F36426B3FBF6F371
:1030100003EBC30606EB0313A1EB8301322303EB9F
:1030200001116423B1FBF3F101F00F011144226897
:10303000916070BD0038014077B581B004461546F7
:103040000298A062A58500206064222084F84200D6
:103050002848E16B88622848E16BC8622748E16B29
:1030600008630020E16B486302AE32682368191DD3
:103070002B46E06BFDF7CAFB00BF002000902068E4
:103080000068009020684068009000BF00BF206981
:1030900070B100BF00BF21680C3151E8001F41F43E
:1030A000807021680C3141E80002002AF3D100BF92
:1030B00000BF00BF2168143151E8001F41F001003A
:1030C0002168143141E80002002AF3D100BF00BF9B
:1030D00000BF2168143151E8001F41F04000216811
:1030E000143141E80002002AF3D100BF002004B0EF
:1030F00070BD0000352C0008E92C0008E52B000805
:10310000014691F84100212828D18868B0F5805FF8
:103110000BD1086948B90A6A1088C0F308000B6827
:103120005860086A801C086205E00B6A581C086237
:1031300018780B685860C88C401E80B2C88458B993
:103140000868C06820F080000B68D8600868C06814
:1031500040F040000B68D860002070470220FCE778
:103160002DE9F84304460D4617469846089E31E07F
:10317000701C70B3FDF74AFDA0EB0800B04200D808
:1031800016B90320BDE8F8832068C06800F0040089
:10319000F8B1802D1ED0402D1CD020680068C0F3EF
:1031A000C000B0B100BF002000902068006800900F
:1031B00020684068009000BF00BF2046FFF7E6FD92
:1031C0000820606400BF002084F8400000BF012098
:1031D000D8E7FFE7206800682840A84201D1012015
:1031E00000E00020B842C3D00020CBE710B5024871
:1031F000FEF7D4FD10BD0000E000002010B502482D
:10320000FEF7CCFD10BD00002801002000BFFEE746
:103210000020024908704870887070472400002020
:103220002DE9F04104461948FCF7B8FF0546184857
:10323000FCF7B4FF06461748FCF7B0FF0746022D1F
:103240000CD12078401C20702078032801DD00205C
:10325000207011490878FDF711F914E0022E08D109
:103260006078401C6070607803280CDD002060707E
:1032700009E0022F07D1A078401CA070A078022896
:1032800001DD0020A070BDE8F0810000F005002005
:1032900000060020100600202400002010B5FDF7D5
:1032A000B5F800F01DF8FFF7B3FF00221146024801
:1032B000FFF74BFA10BD0000CC05002010B5074801
:1032C000FFF7AEFFFFF726FC04494878FFF7BEF88A
:1032D00002498878FDF704F910BD000024000020A1
:1032E00010B50248FEF786F910BD0000500000201E
:1032F0000FB4054B10B503A9044A029800F034F846
:1033000010BC5DF814FB0000213500084C000020C3
:1033100002480068C0F30220704700000CED00E096
:1033200010B5002804DB0A07130E054A135406E003
:103330000A07140E034A00F00F031B1FD45410BDDC
:1033400000E400E018ED00E002E008C8121F08C128
:10335000002AFAD170477047002001E001C1121F16
:10336000002AFBD1704700002DE9FF4F89B09B4632
:103370000446002506E025280BD05A460B999047B5
:10338000641C6D1C20780028F5D10DB02846BDE8DE
:10339000F08F0027B8460122474900E0074314F8A0
:1033A000013F203B02FA03F00842F7D120782E2893
:1033B00019D114F8010F47F004072A280ED06FF036
:1033C0002F022078A0F1300109290CD808EB8801E0
:1033D00002EB410100EB0108641CF2E70A98641C4F
:1033E00050F8048B0A9020780028CED0642808D0AA
:1033F000692806D075281ED05A460B9990476D1C37
:1034000058E00A994FF00A0901C90A91002802DA26
:1034100040422D2102E0390504D52B218DF82010E2
:10342000012103E0F90704D02021F7E78A4608AE1E
:103430000DE00021FAE70A994FF00A0901C90A9143
:10344000F7E74946FCF780FE303106F8011D0028F9
:10345000F7D1ADEB060000F12009780701D44FF059
:103460000108C84502DDA8EB090000E00020804605
:10347000002706E008A85A46C05D0B9990476D1CCE
:103480007F1C5745F6DB04E030205A460B999047E5
:103490006D1CB8F10001A8F10108F5DC05E016F893
:1034A000010B5A460B9990476D1CB9F10001A9F127
:1034B0000109F4DC641C65E70928010010B5FDF77B
:1034C00043FD0349B0FBF1F00249086010BD000064
:1034D00040420F001C00002070B5034600224FF050
:1034E000E02675690D4E366803FB06F44FF0E026C2
:1034F000B16910E04FF0E026B06988420BD08842F5
:1035000002D20E1A324402E02E1A0E443244014610
:10351000A24200D300E0EDE700BF70BD1C00002018
:1035200013B50C464FF6FF73012269460248FEF7B9
:103530008BFE00981CBD000028010020FDF778FBE1
:10354000FFF75FF9FEF7C4FFFEF7A8FFFFF720F8CB
:10355000FFF756F8FFF7B4F8FFF7CEF8FFF79EFE37
:1035600003A0FFF7C5FE01E0FFF7A8FEFCE700009F
:1035700048656C6C6F20576F726C64210A00000004
:103580000146D1F8080108B9012070470020FCE786
:103590000146D1F80801B0F5807F01D101207047C4
:1035A0000020FCE700B502460B461046FFF7E8FF97
:1035B00008B1002000BD02F108005168405C18709D
:1035C0001079401CC0B25060D2F80801401EC2F809
:1035D00008010120EEE700B502460B461046FFF752
:1035E000D7FF08B1002000BD02F108001168435464
:1035F0001078401CC0B21060D2F80801401CC2F81C
:1036000008010120EFE702030405060708090A0B79
:103610000C0D0E0F10100102000000000000000051
:103620000102030406070809000000000102030468
:103630005036000800000020500000004833000809
:10364000A036000850000020D009000058330008C0
:1036500000000000100000000100000000127A00CD
:10366000000000000000000000000000000000005A
:103670000000000000000000000100000000000049
:103680000000000000000000010000000000000039
:10369000000000000000000000000000000000002A
:04000005080000ED02
:00000001FF
